{
  "_format": "hh-sol-artifact-1",
  "contractName": "Marketplace",
  "sourceName": "contracts/Marketplace/Marketplace.sol",
  "abi": [
    {
      "inputs": [],
      "stateMutability": "nonpayable",
      "type": "constructor"
    },
    {
      "anonymous": false,
      "inputs": [
        {
          "indexed": true,
          "internalType": "address",
          "name": "previousOwner",
          "type": "address"
        },
        {
          "indexed": true,
          "internalType": "address",
          "name": "newOwner",
          "type": "address"
        }
      ],
      "name": "OwnershipTransferred",
      "type": "event"
    },
    {
      "inputs": [
        {
          "internalType": "address",
          "name": "collectionAddress",
          "type": "address"
        },
        {
          "internalType": "uint256",
          "name": "tokenId",
          "type": "uint256"
        }
      ],
      "name": "buyNft",
      "outputs": [],
      "stateMutability": "payable",
      "type": "function"
    },
    {
      "inputs": [
        {
          "internalType": "address",
          "name": "dataContractAddress",
          "type": "address"
        }
      ],
      "name": "initDataContract",
      "outputs": [],
      "stateMutability": "nonpayable",
      "type": "function"
    },
    {
      "inputs": [
        {
          "internalType": "address",
          "name": "collectionAddress",
          "type": "address"
        },
        {
          "internalType": "uint256",
          "name": "pricePerUnit",
          "type": "uint256"
        },
        {
          "internalType": "uint256[]",
          "name": "IDS",
          "type": "uint256[]"
        }
      ],
      "name": "listingCollection",
      "outputs": [],
      "stateMutability": "nonpayable",
      "type": "function"
    },
    {
      "inputs": [],
      "name": "owner",
      "outputs": [
        {
          "internalType": "address",
          "name": "",
          "type": "address"
        }
      ],
      "stateMutability": "view",
      "type": "function"
    },
    {
      "inputs": [
        {
          "internalType": "address",
          "name": "collectionAddress",
          "type": "address"
        }
      ],
      "name": "removeCollection",
      "outputs": [],
      "stateMutability": "nonpayable",
      "type": "function"
    },
    {
      "inputs": [],
      "name": "renounceOwnership",
      "outputs": [],
      "stateMutability": "nonpayable",
      "type": "function"
    },
    {
      "inputs": [
        {
          "internalType": "address",
          "name": "newOwner",
          "type": "address"
        }
      ],
      "name": "transferOwnership",
      "outputs": [],
      "stateMutability": "nonpayable",
      "type": "function"
    }
  ],
  "bytecode": "0x608060405234801561001057600080fd5b5061002d61002261003260201b60201c565b61003a60201b60201c565b6100fe565b600033905090565b60008060009054906101000a900473ffffffffffffffffffffffffffffffffffffffff169050816000806101000a81548173ffffffffffffffffffffffffffffffffffffffff021916908373ffffffffffffffffffffffffffffffffffffffff1602179055508173ffffffffffffffffffffffffffffffffffffffff168173ffffffffffffffffffffffffffffffffffffffff167f8be0079c531659141344cd1fd0a4f28419497f9722a3daafe3b4186f6b6457e060405160405180910390a35050565b610fdf8061010d6000396000f3fe6080604052600436106100705760003560e01c8063715018a61161004e578063715018a6146100e35780638da5cb5b146100fa578063e1c4e78014610125578063f2fde38b1461014e57610070565b806331b4fa3d146100755780634ddf4f8f1461009e5780635028d05a146100ba575b600080fd5b34801561008157600080fd5b5061009c60048036038101906100979190610991565b610177565b005b6100b860048036038101906100b391906109e3565b6101c3565b005b3480156100c657600080fd5b506100e160048036038101906100dc9190610991565b610572565b005b3480156100ef57600080fd5b506100f8610604565b005b34801561010657600080fd5b5061010f610618565b60405161011c9190610bde565b60405180910390f35b34801561013157600080fd5b5061014c60048036038101906101479190610a1f565b610641565b005b34801561015a57600080fd5b5061017560048036038101906101709190610991565b6106d9565b005b61017f61075d565b80600160006101000a81548173ffffffffffffffffffffffffffffffffffffffff021916908373ffffffffffffffffffffffffffffffffffffffff16021790555050565b8173ffffffffffffffffffffffffffffffffffffffff16638da5cb5b6040518163ffffffff1660e01b815260040160206040518083038186803b15801561020957600080fd5b505afa15801561021d573d6000803e3d6000fd5b505050506040513d601f19601f8201168201806040525081019061024191906109ba565b73ffffffffffffffffffffffffffffffffffffffff163373ffffffffffffffffffffffffffffffffffffffff1614156102af576040517f08c379a00000000000000000000000000000000000000000000000000000000081526004016102a690610cee565b60405180910390fd5b600160009054906101000a900473ffffffffffffffffffffffffffffffffffffffff1673ffffffffffffffffffffffffffffffffffffffff1663e319217b836040518263ffffffff1660e01b815260040161030a9190610bde565b60206040518083038186803b15801561032257600080fd5b505afa158015610336573d6000803e3d6000fd5b505050506040513d601f19601f8201168201806040525081019061035a9190610a86565b341461039b576040517f08c379a000000000000000000000000000000000000000000000000000000000815260040161039290610d0e565b60405180910390fd5b600160009054906101000a900473ffffffffffffffffffffffffffffffffffffffff1673ffffffffffffffffffffffffffffffffffffffff16639b03b66883836040518363ffffffff1660e01b81526004016103f8929190610ca5565b600060405180830381600087803b15801561041257600080fd5b505af1158015610426573d6000803e3d6000fd5b5050505060008273ffffffffffffffffffffffffffffffffffffffff16636352211e836040518263ffffffff1660e01b81526004016104659190610d4e565b60206040518083038186803b15801561047d57600080fd5b505afa158015610491573d6000803e3d6000fd5b505050506040513d601f19601f820116820180604052508101906104b591906109ba565b90508073ffffffffffffffffffffffffffffffffffffffff166108fc349081150290604051600060405180830381858888f193505050501580156104fd573d6000803e3d6000fd5b508273ffffffffffffffffffffffffffffffffffffffff166342842e0e8233856040518463ffffffff1660e01b815260040161053b93929190610c22565b600060405180830381600087803b15801561055557600080fd5b505af1158015610569573d6000803e3d6000fd5b50505050505050565b600160009054906101000a900473ffffffffffffffffffffffffffffffffffffffff1673ffffffffffffffffffffffffffffffffffffffff1663a7a8611682336040518363ffffffff1660e01b81526004016105cf929190610bf9565b600060405180830381600087803b1580156105e957600080fd5b505af11580156105fd573d6000803e3d6000fd5b5050505050565b61060c61075d565b61061660006107db565b565b60008060009054906101000a900473ffffffffffffffffffffffffffffffffffffffff16905090565b600160009054906101000a900473ffffffffffffffffffffffffffffffffffffffff1673ffffffffffffffffffffffffffffffffffffffff166334f85e1f843385856040518563ffffffff1660e01b81526004016106a29493929190610c59565b600060405180830381600087803b1580156106bc57600080fd5b505af11580156106d0573d6000803e3d6000fd5b50505050505050565b6106e161075d565b600073ffffffffffffffffffffffffffffffffffffffff168173ffffffffffffffffffffffffffffffffffffffff161415610751576040517f08c379a000000000000000000000000000000000000000000000000000000000815260040161074890610cce565b60405180910390fd5b61075a816107db565b50565b61076561089f565b73ffffffffffffffffffffffffffffffffffffffff16610783610618565b73ffffffffffffffffffffffffffffffffffffffff16146107d9576040517f08c379a00000000000000000000000000000000000000000000000000000000081526004016107d090610d2e565b60405180910390fd5b565b60008060009054906101000a900473ffffffffffffffffffffffffffffffffffffffff169050816000806101000a81548173ffffffffffffffffffffffffffffffffffffffff021916908373ffffffffffffffffffffffffffffffffffffffff1602179055508173ffffffffffffffffffffffffffffffffffffffff168173ffffffffffffffffffffffffffffffffffffffff167f8be0079c531659141344cd1fd0a4f28419497f9722a3daafe3b4186f6b6457e060405160405180910390a35050565b600033905090565b60006108ba6108b584610d8e565b610d69565b905080838252602082019050828560208602820111156108d957600080fd5b60005b8581101561090957816108ef8882610967565b8452602084019350602083019250506001810190506108dc565b5050509392505050565b60008135905061092281610f7b565b92915050565b60008151905061093781610f7b565b92915050565b600082601f83011261094e57600080fd5b813561095e8482602086016108a7565b91505092915050565b60008135905061097681610f92565b92915050565b60008151905061098b81610f92565b92915050565b6000602082840312156109a357600080fd5b60006109b184828501610913565b91505092915050565b6000602082840312156109cc57600080fd5b60006109da84828501610928565b91505092915050565b600080604083850312156109f657600080fd5b6000610a0485828601610913565b9250506020610a1585828601610967565b9150509250929050565b600080600060608486031215610a3457600080fd5b6000610a4286828701610913565b9350506020610a5386828701610967565b925050604084013567ffffffffffffffff811115610a7057600080fd5b610a7c8682870161093d565b9150509250925092565b600060208284031215610a9857600080fd5b6000610aa68482850161097c565b91505092915050565b6000610abb8383610bc0565b60208301905092915050565b610ad081610e04565b82525050565b6000610ae182610dca565b610aeb8185610de2565b9350610af683610dba565b8060005b83811015610b27578151610b0e8882610aaf565b9750610b1983610dd5565b925050600181019050610afa565b5085935050505092915050565b6000610b41602683610df3565b9150610b4c82610eb1565b604082019050919050565b6000610b64602083610df3565b9150610b6f82610f00565b602082019050919050565b6000610b87601283610df3565b9150610b9282610f29565b602082019050919050565b6000610baa602083610df3565b9150610bb582610f52565b602082019050919050565b610bc981610e36565b82525050565b610bd881610e36565b82525050565b6000602082019050610bf36000830184610ac7565b92915050565b6000604082019050610c0e6000830185610ac7565b610c1b6020830184610ac7565b9392505050565b6000606082019050610c376000830186610ac7565b610c446020830185610ac7565b610c516040830184610bcf565b949350505050565b6000608082019050610c6e6000830187610ac7565b610c7b6020830186610ac7565b610c886040830185610bcf565b8181036060830152610c9a8184610ad6565b905095945050505050565b6000604082019050610cba6000830185610ac7565b610cc76020830184610bcf565b9392505050565b60006020820190508181036000830152610ce781610b34565b9050919050565b60006020820190508181036000830152610d0781610b57565b9050919050565b60006020820190508181036000830152610d2781610b7a565b9050919050565b60006020820190508181036000830152610d4781610b9d565b9050919050565b6000602082019050610d636000830184610bcf565b92915050565b6000610d73610d84565b9050610d7f8282610e40565b919050565b6000604051905090565b600067ffffffffffffffff821115610da957610da8610e71565b5b602082029050602081019050919050565b6000819050602082019050919050565b600081519050919050565b6000602082019050919050565b600082825260208201905092915050565b600082825260208201905092915050565b6000610e0f82610e16565b9050919050565b600073ffffffffffffffffffffffffffffffffffffffff82169050919050565b6000819050919050565b610e4982610ea0565b810181811067ffffffffffffffff82111715610e6857610e67610e71565b5b80604052505050565b7f4e487b7100000000000000000000000000000000000000000000000000000000600052604160045260246000fd5b6000601f19601f8301169050919050565b7f4f776e61626c653a206e6577206f776e657220697320746865207a65726f206160008201527f6464726573730000000000000000000000000000000000000000000000000000602082015250565b7f4e6f7420706f737369626c652062757920796f7572206f776e20746f6b656e21600082015250565b7f53657420636f7272656374205072696365210000000000000000000000000000600082015250565b7f4f776e61626c653a2063616c6c6572206973206e6f7420746865206f776e6572600082015250565b610f8481610e04565b8114610f8f57600080fd5b50565b610f9b81610e36565b8114610fa657600080fd5b5056fea2646970667358221220dec7a1e91b54057e39ca38f9d33dd1be5ad09509707c81f544c707196975433f64736f6c63430008040033",
  "linkReferences": {},
  "deployedLinkReferences": {}
}