{
  "_format": "hh-sol-artifact-1",
  "contractName": "NFT",
  "sourceName": "contracts/Collection/NFT.sol",
  "abi": [
    {
      "inputs": [
        {
          "internalType": "string",
          "name": "name",
          "type": "string"
        },
        {
          "internalType": "string",
          "name": "symbol",
          "type": "string"
        },
        {
          "internalType": "string",
          "name": "uri",
          "type": "string"
        },
        {
          "internalType": "uint256",
          "name": "totalAmount",
          "type": "uint256"
        },
        {
          "internalType": "address",
          "name": "sender",
          "type": "address"
        }
      ],
      "stateMutability": "nonpayable",
      "type": "constructor"
    },
    {
      "inputs": [],
      "name": "maxSupplyReached",
      "type": "error"
    },
    {
      "anonymous": false,
      "inputs": [
        {
          "indexed": true,
          "internalType": "address",
          "name": "owner",
          "type": "address"
        },
        {
          "indexed": true,
          "internalType": "address",
          "name": "approved",
          "type": "address"
        },
        {
          "indexed": true,
          "internalType": "uint256",
          "name": "tokenId",
          "type": "uint256"
        }
      ],
      "name": "Approval",
      "type": "event"
    },
    {
      "anonymous": false,
      "inputs": [
        {
          "indexed": true,
          "internalType": "address",
          "name": "owner",
          "type": "address"
        },
        {
          "indexed": true,
          "internalType": "address",
          "name": "operator",
          "type": "address"
        },
        {
          "indexed": false,
          "internalType": "bool",
          "name": "approved",
          "type": "bool"
        }
      ],
      "name": "ApprovalForAll",
      "type": "event"
    },
    {
      "anonymous": false,
      "inputs": [
        {
          "indexed": true,
          "internalType": "address",
          "name": "previousOwner",
          "type": "address"
        },
        {
          "indexed": true,
          "internalType": "address",
          "name": "newOwner",
          "type": "address"
        }
      ],
      "name": "OwnershipTransferred",
      "type": "event"
    },
    {
      "anonymous": false,
      "inputs": [
        {
          "indexed": true,
          "internalType": "address",
          "name": "from",
          "type": "address"
        },
        {
          "indexed": true,
          "internalType": "address",
          "name": "to",
          "type": "address"
        },
        {
          "indexed": true,
          "internalType": "uint256",
          "name": "tokenId",
          "type": "uint256"
        }
      ],
      "name": "Transfer",
      "type": "event"
    },
    {
      "inputs": [
        {
          "internalType": "address",
          "name": "to",
          "type": "address"
        },
        {
          "internalType": "uint256",
          "name": "tokenId",
          "type": "uint256"
        }
      ],
      "name": "approve",
      "outputs": [],
      "stateMutability": "nonpayable",
      "type": "function"
    },
    {
      "inputs": [
        {
          "internalType": "address",
          "name": "account",
          "type": "address"
        }
      ],
      "name": "balanceOf",
      "outputs": [
        {
          "internalType": "uint256",
          "name": "",
          "type": "uint256"
        }
      ],
      "stateMutability": "view",
      "type": "function"
    },
    {
      "inputs": [],
      "name": "collectionUri",
      "outputs": [
        {
          "internalType": "string",
          "name": "",
          "type": "string"
        }
      ],
      "stateMutability": "view",
      "type": "function"
    },
    {
      "inputs": [
        {
          "internalType": "uint256",
          "name": "tokenId",
          "type": "uint256"
        }
      ],
      "name": "getApproved",
      "outputs": [
        {
          "internalType": "address",
          "name": "",
          "type": "address"
        }
      ],
      "stateMutability": "view",
      "type": "function"
    },
    {
      "inputs": [
        {
          "internalType": "address",
          "name": "marketplaceAddress",
          "type": "address"
        }
      ],
      "name": "initMarketplace",
      "outputs": [],
      "stateMutability": "nonpayable",
      "type": "function"
    },
    {
      "inputs": [
        {
          "internalType": "address",
          "name": "owner",
          "type": "address"
        },
        {
          "internalType": "address",
          "name": "operator",
          "type": "address"
        }
      ],
      "name": "isApprovedForAll",
      "outputs": [
        {
          "internalType": "bool",
          "name": "",
          "type": "bool"
        }
      ],
      "stateMutability": "view",
      "type": "function"
    },
    {
      "inputs": [],
      "name": "maxSupplyCollection",
      "outputs": [
        {
          "internalType": "uint256",
          "name": "",
          "type": "uint256"
        }
      ],
      "stateMutability": "view",
      "type": "function"
    },
    {
      "inputs": [],
      "name": "mintAllYourTokens",
      "outputs": [],
      "stateMutability": "nonpayable",
      "type": "function"
    },
    {
      "inputs": [],
      "name": "name",
      "outputs": [
        {
          "internalType": "string",
          "name": "",
          "type": "string"
        }
      ],
      "stateMutability": "view",
      "type": "function"
    },
    {
      "inputs": [],
      "name": "owner",
      "outputs": [
        {
          "internalType": "address",
          "name": "",
          "type": "address"
        }
      ],
      "stateMutability": "view",
      "type": "function"
    },
    {
      "inputs": [
        {
          "internalType": "uint256",
          "name": "tokenId",
          "type": "uint256"
        }
      ],
      "name": "ownerOf",
      "outputs": [
        {
          "internalType": "address",
          "name": "",
          "type": "address"
        }
      ],
      "stateMutability": "view",
      "type": "function"
    },
    {
      "inputs": [],
      "name": "renounceOwnership",
      "outputs": [],
      "stateMutability": "nonpayable",
      "type": "function"
    },
    {
      "inputs": [
        {
          "internalType": "address",
          "name": "from",
          "type": "address"
        },
        {
          "internalType": "address",
          "name": "to",
          "type": "address"
        },
        {
          "internalType": "uint256",
          "name": "tokenId",
          "type": "uint256"
        }
      ],
      "name": "safeTransferFrom",
      "outputs": [],
      "stateMutability": "nonpayable",
      "type": "function"
    },
    {
      "inputs": [
        {
          "internalType": "address",
          "name": "from",
          "type": "address"
        },
        {
          "internalType": "address",
          "name": "to",
          "type": "address"
        },
        {
          "internalType": "uint256",
          "name": "tokenId",
          "type": "uint256"
        },
        {
          "internalType": "bytes",
          "name": "data",
          "type": "bytes"
        }
      ],
      "name": "safeTransferFrom",
      "outputs": [],
      "stateMutability": "nonpayable",
      "type": "function"
    },
    {
      "inputs": [
        {
          "internalType": "address",
          "name": "operator",
          "type": "address"
        },
        {
          "internalType": "bool",
          "name": "approved",
          "type": "bool"
        }
      ],
      "name": "setApprovalForAll",
      "outputs": [],
      "stateMutability": "nonpayable",
      "type": "function"
    },
    {
      "inputs": [
        {
          "internalType": "string",
          "name": "newUri",
          "type": "string"
        }
      ],
      "name": "setNewUri",
      "outputs": [],
      "stateMutability": "nonpayable",
      "type": "function"
    },
    {
      "inputs": [
        {
          "internalType": "bytes4",
          "name": "interfaceId",
          "type": "bytes4"
        }
      ],
      "name": "supportsInterface",
      "outputs": [
        {
          "internalType": "bool",
          "name": "",
          "type": "bool"
        }
      ],
      "stateMutability": "view",
      "type": "function"
    },
    {
      "inputs": [],
      "name": "symbol",
      "outputs": [
        {
          "internalType": "string",
          "name": "",
          "type": "string"
        }
      ],
      "stateMutability": "view",
      "type": "function"
    },
    {
      "inputs": [
        {
          "internalType": "uint256",
          "name": "_tokenId",
          "type": "uint256"
        }
      ],
      "name": "tokenURI",
      "outputs": [
        {
          "internalType": "string",
          "name": "",
          "type": "string"
        }
      ],
      "stateMutability": "view",
      "type": "function"
    },
    {
      "inputs": [
        {
          "internalType": "address",
          "name": "from",
          "type": "address"
        },
        {
          "internalType": "address",
          "name": "to",
          "type": "address"
        },
        {
          "internalType": "uint256",
          "name": "tokenId",
          "type": "uint256"
        }
      ],
      "name": "transferFrom",
      "outputs": [],
      "stateMutability": "nonpayable",
      "type": "function"
    },
    {
      "inputs": [
        {
          "internalType": "address",
          "name": "newOwner",
          "type": "address"
        }
      ],
      "name": "transferOwnership",
      "outputs": [],
      "stateMutability": "nonpayable",
      "type": "function"
    }
  ],
  "bytecode": "0x60806040523480156200001157600080fd5b506040516200373d3803806200373d833981810160405281019062000037919062000308565b8484816000908051906020019062000051929190620001b8565b5080600190805190602001906200006a929190620001b8565b5050506200008d62000081620000ea60201b60201c565b620000f260201b60201c565b6200009e81620000f260201b60201c565b82604051602001620000b1919062000433565b60405160208183030381529060405260089080519060200190620000d7929190620001b8565b508160098190555050505050506200067a565b600033905090565b6000600660009054906101000a900473ffffffffffffffffffffffffffffffffffffffff16905081600660006101000a81548173ffffffffffffffffffffffffffffffffffffffff021916908373ffffffffffffffffffffffffffffffffffffffff1602179055508173ffffffffffffffffffffffffffffffffffffffff168173ffffffffffffffffffffffffffffffffffffffff167f8be0079c531659141344cd1fd0a4f28419497f9722a3daafe3b4186f6b6457e060405160405180910390a35050565b828054620001c69062000542565b90600052602060002090601f016020900481019282620001ea576000855562000236565b82601f106200020557805160ff191683800117855562000236565b8280016001018555821562000236579182015b828111156200023557825182559160200191906001019062000218565b5b50905062000245919062000249565b5090565b5b80821115620002645760008160009055506001016200024a565b5090565b60006200027f620002798462000482565b62000459565b9050828152602081018484840111156200029857600080fd5b620002a58482856200050c565b509392505050565b600081519050620002be8162000646565b92915050565b600082601f830112620002d657600080fd5b8151620002e884826020860162000268565b91505092915050565b600081519050620003028162000660565b92915050565b600080600080600060a086880312156200032157600080fd5b600086015167ffffffffffffffff8111156200033c57600080fd5b6200034a88828901620002c4565b955050602086015167ffffffffffffffff8111156200036857600080fd5b6200037688828901620002c4565b945050604086015167ffffffffffffffff8111156200039457600080fd5b620003a288828901620002c4565b9350506060620003b588828901620002f1565b9250506080620003c888828901620002ad565b9150509295509295909350565b6000620003e282620004b8565b620003ee8185620004c3565b9350620004008185602086016200050c565b80840191505092915050565b60006200041b600183620004c3565b915062000428826200061d565b600182019050919050565b6000620004418284620003d5565b91506200044e826200040c565b915081905092915050565b60006200046562000478565b905062000473828262000578565b919050565b6000604051905090565b600067ffffffffffffffff821115620004a0576200049f620005dd565b5b620004ab826200060c565b9050602081019050919050565b600081519050919050565b600081905092915050565b6000620004db82620004e2565b9050919050565b600073ffffffffffffffffffffffffffffffffffffffff82169050919050565b6000819050919050565b60005b838110156200052c5780820151818401526020810190506200050f565b838111156200053c576000848401525b50505050565b600060028204905060018216806200055b57607f821691505b60208210811415620005725762000571620005ae565b5b50919050565b62000583826200060c565b810181811067ffffffffffffffff82111715620005a557620005a4620005dd565b5b80604052505050565b7f4e487b7100000000000000000000000000000000000000000000000000000000600052602260045260246000fd5b7f4e487b7100000000000000000000000000000000000000000000000000000000600052604160045260246000fd5b6000601f19601f8301169050919050565b7f2f00000000000000000000000000000000000000000000000000000000000000600082015250565b6200065181620004ce565b81146200065d57600080fd5b50565b6200066b8162000502565b81146200067757600080fd5b50565b6130b3806200068a6000396000f3fe608060405234801561001057600080fd5b50600436106101375760003560e01c8063715018a6116100b8578063b88d4fde1161007c578063b88d4fde14610314578063c87b56dd14610330578063defcd4b314610360578063e88652971461037e578063e985e9c51461039a578063f2fde38b146103ca57610137565b8063715018a6146102a85780638c3172fc146102b25780638da5cb5b146102bc57806395d89b41146102da578063a22cb465146102f857610137565b806323b872dd116100ff57806323b872dd146101f45780633c45dde91461021057806342842e0e1461022c5780636352211e1461024857806370a082311461027857610137565b806301ffc9a71461013c57806303b9a4f91461016c57806306fdde031461018a578063081812fc146101a8578063095ea7b3146101d8575b600080fd5b6101566004803603810190610151919061237f565b6103e6565b60405161016391906127ad565b60405180910390f35b6101746104c8565b604051610181919061296a565b60405180910390f35b6101926104ce565b60405161019f91906127c8565b60405180910390f35b6101c260048036038101906101bd9190612412565b610560565b6040516101cf9190612746565b60405180910390f35b6101f260048036038101906101ed9190612343565b6105a6565b005b61020e6004803603810190610209919061223d565b6106be565b005b61022a600480360381019061022591906121d8565b61071e565b005b6102466004803603810190610241919061223d565b61076a565b005b610262600480360381019061025d9190612412565b61078a565b60405161026f9190612746565b60405180910390f35b610292600480360381019061028d91906121d8565b610811565b60405161029f919061296a565b60405180910390f35b6102b061085a565b005b6102ba61086e565b005b6102c4610953565b6040516102d19190612746565b60405180910390f35b6102e261097d565b6040516102ef91906127c8565b60405180910390f35b610312600480360381019061030d9190612307565b610a0f565b005b61032e6004803603810190610329919061228c565b610a25565b005b61034a60048036038101906103459190612412565b610a87565b60405161035791906127c8565b60405180910390f35b610368610acd565b60405161037591906127c8565b60405180910390f35b610398600480360381019061039391906123d1565b610b5b565b005b6103b460048036038101906103af9190612201565b610b9c565b6040516103c191906127ad565b60405180910390f35b6103e460048036038101906103df91906121d8565b610c08565b005b60007f80ac58cd000000000000000000000000000000000000000000000000000000007bffffffffffffffffffffffffffffffffffffffffffffffffffffffff1916827bffffffffffffffffffffffffffffffffffffffffffffffffffffffff191614806104b157507f5b5e139f000000000000000000000000000000000000000000000000000000007bffffffffffffffffffffffffffffffffffffffffffffffffffffffff1916827bffffffffffffffffffffffffffffffffffffffffffffffffffffffff1916145b806104c157506104c082610c8c565b5b9050919050565b60095481565b6060600080546104dd90612b8f565b80601f016020809104026020016040519081016040528092919081815260200182805461050990612b8f565b80156105565780601f1061052b57610100808354040283529160200191610556565b820191906000526020600020905b81548152906001019060200180831161053957829003601f168201915b5050505050905090565b600061056b82610cf6565b6004600083815260200190815260200160002060009054906101000a900473ffffffffffffffffffffffffffffffffffffffff169050919050565b60006105b18261078a565b90508073ffffffffffffffffffffffffffffffffffffffff168373ffffffffffffffffffffffffffffffffffffffff161415610622576040517f08c379a00000000000000000000000000000000000000000000000000000000081526004016106199061292a565b60405180910390fd5b8073ffffffffffffffffffffffffffffffffffffffff16610641610d41565b73ffffffffffffffffffffffffffffffffffffffff161480610670575061066f8161066a610d41565b610b9c565b5b6106af576040517f08c379a00000000000000000000000000000000000000000000000000000000081526004016106a69061294a565b60405180910390fd5b6106b98383610d49565b505050565b6106cf6106c9610d41565b82610e02565b61070e576040517f08c379a0000000000000000000000000000000000000000000000000000000008152600401610705906127ea565b60405180910390fd5b610719838383610e97565b505050565b610726610f55565b80600b60006101000a81548173ffffffffffffffffffffffffffffffffffffffff021916908373ffffffffffffffffffffffffffffffffffffffff16021790555050565b61078583838360405180602001604052806000815250610a25565b505050565b60008061079683610fd3565b9050600073ffffffffffffffffffffffffffffffffffffffff168173ffffffffffffffffffffffffffffffffffffffff161415610808576040517f08c379a00000000000000000000000000000000000000000000000000000000081526004016107ff9061290a565b60405180910390fd5b80915050919050565b6000600a60008373ffffffffffffffffffffffffffffffffffffffff1673ffffffffffffffffffffffffffffffffffffffff168152602001908152602001600020549050919050565b610862610f55565b61086c6000611010565b565b610876610f55565b60005b6009548110156108f857600061088f60076110d6565b90506009548110156108b4576108a533826110e4565b6108af6007611102565b6108e6565b6040517f71ff01b000000000000000000000000000000000000000000000000000000000815260040160405180910390fd5b50806108f190612bf2565b9050610879565b50600954600a60003373ffffffffffffffffffffffffffffffffffffffff1673ffffffffffffffffffffffffffffffffffffffff168152602001908152602001600020600082825461094a9190612a4f565b92505081905550565b6000600660009054906101000a900473ffffffffffffffffffffffffffffffffffffffff16905090565b60606001805461098c90612b8f565b80601f01602080910402602001604051908101604052809291908181526020018280546109b890612b8f565b8015610a055780601f106109da57610100808354040283529160200191610a05565b820191906000526020600020905b8154815290600101906020018083116109e857829003601f168201915b5050505050905090565b610a21610a1a610d41565b8383611118565b5050565b610a36610a30610d41565b83610e02565b610a75576040517f08c379a0000000000000000000000000000000000000000000000000000000008152600401610a6c906127ea565b60405180910390fd5b610a8184848484611285565b50505050565b60606000610a94836112e1565b90506000610aa0611405565b82604051602001610ab29291906126f5565b60405160208183030381529060405290508092505050919050565b60088054610ada90612b8f565b80601f0160208091040260200160405190810160405280929190818152602001828054610b0690612b8f565b8015610b535780601f10610b2857610100808354040283529160200191610b53565b820191906000526020600020905b815481529060010190602001808311610b3657829003601f168201915b505050505081565b610b63610f55565b80604051602001610b749190612724565b60405160208183030381529060405260089080519060200190610b98929190611ffc565b5050565b6000610ba88383611497565b80610c005750600b60009054906101000a900473ffffffffffffffffffffffffffffffffffffffff1673ffffffffffffffffffffffffffffffffffffffff168273ffffffffffffffffffffffffffffffffffffffff16145b905092915050565b610c10610f55565b600073ffffffffffffffffffffffffffffffffffffffff168173ffffffffffffffffffffffffffffffffffffffff161415610c80576040517f08c379a0000000000000000000000000000000000000000000000000000000008152600401610c779061282a565b60405180910390fd5b610c8981611010565b50565b60007f01ffc9a7000000000000000000000000000000000000000000000000000000007bffffffffffffffffffffffffffffffffffffffffffffffffffffffff1916827bffffffffffffffffffffffffffffffffffffffffffffffffffffffff1916149050919050565b610cff8161152b565b610d3e576040517f08c379a0000000000000000000000000000000000000000000000000000000008152600401610d359061290a565b60405180910390fd5b50565b600033905090565b816004600083815260200190815260200160002060006101000a81548173ffffffffffffffffffffffffffffffffffffffff021916908373ffffffffffffffffffffffffffffffffffffffff160217905550808273ffffffffffffffffffffffffffffffffffffffff16610dbc8361078a565b73ffffffffffffffffffffffffffffffffffffffff167f8c5be1e5ebec7d5bd14f71427d1e84f3dd0314c0f7b2291e5b200ac8c7c3b92560405160405180910390a45050565b600080610e0e8361078a565b90508073ffffffffffffffffffffffffffffffffffffffff168473ffffffffffffffffffffffffffffffffffffffff161480610e505750610e4f8185610b9c565b5b80610e8e57508373ffffffffffffffffffffffffffffffffffffffff16610e7684610560565b73ffffffffffffffffffffffffffffffffffffffff16145b91505092915050565b6001600a60008573ffffffffffffffffffffffffffffffffffffffff1673ffffffffffffffffffffffffffffffffffffffff1681526020019081526020016000206000828254610ee79190612aa5565b925050819055506001600a60008473ffffffffffffffffffffffffffffffffffffffff1673ffffffffffffffffffffffffffffffffffffffff1681526020019081526020016000206000828254610f3e9190612a4f565b92505081905550610f5083838361156c565b505050565b610f5d610d41565b73ffffffffffffffffffffffffffffffffffffffff16610f7b610953565b73ffffffffffffffffffffffffffffffffffffffff1614610fd1576040517f08c379a0000000000000000000000000000000000000000000000000000000008152600401610fc8906128ea565b60405180910390fd5b565b60006002600083815260200190815260200160002060009054906101000a900473ffffffffffffffffffffffffffffffffffffffff169050919050565b6000600660009054906101000a900473ffffffffffffffffffffffffffffffffffffffff16905081600660006101000a81548173ffffffffffffffffffffffffffffffffffffffff021916908373ffffffffffffffffffffffffffffffffffffffff1602179055508173ffffffffffffffffffffffffffffffffffffffff168173ffffffffffffffffffffffffffffffffffffffff167f8be0079c531659141344cd1fd0a4f28419497f9722a3daafe3b4186f6b6457e060405160405180910390a35050565b600081600001549050919050565b6110fe828260405180602001604052806000815250611866565b5050565b6001816000016000828254019250508190555050565b8173ffffffffffffffffffffffffffffffffffffffff168373ffffffffffffffffffffffffffffffffffffffff161415611187576040517f08c379a000000000000000000000000000000000000000000000000000000000815260040161117e906128aa565b60405180910390fd5b80600560008573ffffffffffffffffffffffffffffffffffffffff1673ffffffffffffffffffffffffffffffffffffffff16815260200190815260200160002060008473ffffffffffffffffffffffffffffffffffffffff1673ffffffffffffffffffffffffffffffffffffffff16815260200190815260200160002060006101000a81548160ff0219169083151502179055508173ffffffffffffffffffffffffffffffffffffffff168373ffffffffffffffffffffffffffffffffffffffff167f17307eab39ab6107e8899845ad3d59bd9653f200f220920489ca2b5937696c318360405161127891906127ad565b60405180910390a3505050565b611290848484610e97565b61129c848484846118c1565b6112db576040517f08c379a00000000000000000000000000000000000000000000000000000000081526004016112d29061280a565b60405180910390fd5b50505050565b6060600060016112f084611a58565b01905060008167ffffffffffffffff811115611335577f4e487b7100000000000000000000000000000000000000000000000000000000600052604160045260246000fd5b6040519080825280601f01601f1916602001820160405280156113675781602001600182028036833780820191505090505b509050600082602001820190505b6001156113fa578080600190039150507f3031323334353637383961626364656600000000000000000000000000000000600a86061a8153600a85816113e4577f4e487b7100000000000000000000000000000000000000000000000000000000600052601260045260246000fd5b04945060008514156113f5576113fa565b611375565b819350505050919050565b60606008805461141490612b8f565b80601f016020809104026020016040519081016040528092919081815260200182805461144090612b8f565b801561148d5780601f106114625761010080835404028352916020019161148d565b820191906000526020600020905b81548152906001019060200180831161147057829003601f168201915b5050505050905090565b6000600560008473ffffffffffffffffffffffffffffffffffffffff1673ffffffffffffffffffffffffffffffffffffffff16815260200190815260200160002060008373ffffffffffffffffffffffffffffffffffffffff1673ffffffffffffffffffffffffffffffffffffffff16815260200190815260200160002060009054906101000a900460ff16905092915050565b60008073ffffffffffffffffffffffffffffffffffffffff1661154d83610fd3565b73ffffffffffffffffffffffffffffffffffffffff1614159050919050565b8273ffffffffffffffffffffffffffffffffffffffff1661158c8261078a565b73ffffffffffffffffffffffffffffffffffffffff16146115e2576040517f08c379a00000000000000000000000000000000000000000000000000000000081526004016115d99061284a565b60405180910390fd5b600073ffffffffffffffffffffffffffffffffffffffff168273ffffffffffffffffffffffffffffffffffffffff161415611652576040517f08c379a00000000000000000000000000000000000000000000000000000000081526004016116499061288a565b60405180910390fd5b61165f8383836001611c8f565b8273ffffffffffffffffffffffffffffffffffffffff1661167f8261078a565b73ffffffffffffffffffffffffffffffffffffffff16146116d5576040517f08c379a00000000000000000000000000000000000000000000000000000000081526004016116cc9061284a565b60405180910390fd5b6004600082815260200190815260200160002060006101000a81549073ffffffffffffffffffffffffffffffffffffffff02191690556001600360008573ffffffffffffffffffffffffffffffffffffffff1673ffffffffffffffffffffffffffffffffffffffff168152602001908152602001600020600082825403925050819055506001600360008473ffffffffffffffffffffffffffffffffffffffff1673ffffffffffffffffffffffffffffffffffffffff16815260200190815260200160002060008282540192505081905550816002600083815260200190815260200160002060006101000a81548173ffffffffffffffffffffffffffffffffffffffff021916908373ffffffffffffffffffffffffffffffffffffffff160217905550808273ffffffffffffffffffffffffffffffffffffffff168473ffffffffffffffffffffffffffffffffffffffff167fddf252ad1be2c89b69c2b068fc378daa952ba7f163c4a11628f55a4df523b3ef60405160405180910390a46118618383836001611db5565b505050565b6118708383611dbb565b61187d60008484846118c1565b6118bc576040517f08c379a00000000000000000000000000000000000000000000000000000000081526004016118b39061280a565b60405180910390fd5b505050565b60006118e28473ffffffffffffffffffffffffffffffffffffffff16611fd9565b15611a4b578373ffffffffffffffffffffffffffffffffffffffff1663150b7a0261190b610d41565b8786866040518563ffffffff1660e01b815260040161192d9493929190612761565b602060405180830381600087803b15801561194757600080fd5b505af192505050801561197857506040513d601f19601f8201168201806040525081019061197591906123a8565b60015b6119fb573d80600081146119a8576040519150601f19603f3d011682016040523d82523d6000602084013e6119ad565b606091505b506000815114156119f3576040517f08c379a00000000000000000000000000000000000000000000000000000000081526004016119ea9061280a565b60405180910390fd5b805181602001fd5b63150b7a0260e01b7bffffffffffffffffffffffffffffffffffffffffffffffffffffffff1916817bffffffffffffffffffffffffffffffffffffffffffffffffffffffff191614915050611a50565b600190505b949350505050565b600080600090507a184f03e93ff9f4daa797ed6e38ed64bf6a1f0100000000000000008310611adc577a184f03e93ff9f4daa797ed6e38ed64bf6a1f0100000000000000008381611ad2577f4e487b7100000000000000000000000000000000000000000000000000000000600052601260045260246000fd5b0492506040810190505b6d04ee2d6d415b85acef81000000008310611b3f576d04ee2d6d415b85acef81000000008381611b35577f4e487b7100000000000000000000000000000000000000000000000000000000600052601260045260246000fd5b0492506020810190505b662386f26fc100008310611b9457662386f26fc100008381611b8a577f4e487b7100000000000000000000000000000000000000000000000000000000600052601260045260246000fd5b0492506010810190505b6305f5e1008310611be3576305f5e1008381611bd9577f4e487b7100000000000000000000000000000000000000000000000000000000600052601260045260246000fd5b0492506008810190505b6127108310611c2e576127108381611c24577f4e487b7100000000000000000000000000000000000000000000000000000000600052601260045260246000fd5b0492506004810190505b60648310611c775760648381611c6d577f4e487b7100000000000000000000000000000000000000000000000000000000600052601260045260246000fd5b0492506002810190505b600a8310611c86576001810190505b80915050919050565b6001811115611daf57600073ffffffffffffffffffffffffffffffffffffffff168473ffffffffffffffffffffffffffffffffffffffff1614611d235780600360008673ffffffffffffffffffffffffffffffffffffffff1673ffffffffffffffffffffffffffffffffffffffff1681526020019081526020016000206000828254611d1b9190612aa5565b925050819055505b600073ffffffffffffffffffffffffffffffffffffffff168373ffffffffffffffffffffffffffffffffffffffff1614611dae5780600360008573ffffffffffffffffffffffffffffffffffffffff1673ffffffffffffffffffffffffffffffffffffffff1681526020019081526020016000206000828254611da69190612a4f565b925050819055505b5b50505050565b50505050565b600073ffffffffffffffffffffffffffffffffffffffff168273ffffffffffffffffffffffffffffffffffffffff161415611e2b576040517f08c379a0000000000000000000000000000000000000000000000000000000008152600401611e22906128ca565b60405180910390fd5b611e348161152b565b15611e74576040517f08c379a0000000000000000000000000000000000000000000000000000000008152600401611e6b9061286a565b60405180910390fd5b611e82600083836001611c8f565b611e8b8161152b565b15611ecb576040517f08c379a0000000000000000000000000000000000000000000000000000000008152600401611ec29061286a565b60405180910390fd5b6001600360008473ffffffffffffffffffffffffffffffffffffffff1673ffffffffffffffffffffffffffffffffffffffff16815260200190815260200160002060008282540192505081905550816002600083815260200190815260200160002060006101000a81548173ffffffffffffffffffffffffffffffffffffffff021916908373ffffffffffffffffffffffffffffffffffffffff160217905550808273ffffffffffffffffffffffffffffffffffffffff16600073ffffffffffffffffffffffffffffffffffffffff167fddf252ad1be2c89b69c2b068fc378daa952ba7f163c4a11628f55a4df523b3ef60405160405180910390a4611fd5600083836001611db5565b5050565b6000808273ffffffffffffffffffffffffffffffffffffffff163b119050919050565b82805461200890612b8f565b90600052602060002090601f01602090048101928261202a5760008555612071565b82601f1061204357805160ff1916838001178555612071565b82800160010185558215612071579182015b82811115612070578251825591602001919060010190612055565b5b50905061207e9190612082565b5090565b5b8082111561209b576000816000905550600101612083565b5090565b60006120b26120ad846129aa565b612985565b9050828152602081018484840111156120ca57600080fd5b6120d5848285612b4d565b509392505050565b60006120f06120eb846129db565b612985565b90508281526020810184848401111561210857600080fd5b612113848285612b4d565b509392505050565b60008135905061212a81613021565b92915050565b60008135905061213f81613038565b92915050565b6000813590506121548161304f565b92915050565b6000815190506121698161304f565b92915050565b600082601f83011261218057600080fd5b813561219084826020860161209f565b91505092915050565b600082601f8301126121aa57600080fd5b81356121ba8482602086016120dd565b91505092915050565b6000813590506121d281613066565b92915050565b6000602082840312156121ea57600080fd5b60006121f88482850161211b565b91505092915050565b6000806040838503121561221457600080fd5b60006122228582860161211b565b92505060206122338582860161211b565b9150509250929050565b60008060006060848603121561225257600080fd5b60006122608682870161211b565b93505060206122718682870161211b565b9250506040612282868287016121c3565b9150509250925092565b600080600080608085870312156122a257600080fd5b60006122b08782880161211b565b94505060206122c18782880161211b565b93505060406122d2878288016121c3565b925050606085013567ffffffffffffffff8111156122ef57600080fd5b6122fb8782880161216f565b91505092959194509250565b6000806040838503121561231a57600080fd5b60006123288582860161211b565b925050602061233985828601612130565b9150509250929050565b6000806040838503121561235657600080fd5b60006123648582860161211b565b9250506020612375858286016121c3565b9150509250929050565b60006020828403121561239157600080fd5b600061239f84828501612145565b91505092915050565b6000602082840312156123ba57600080fd5b60006123c88482850161215a565b91505092915050565b6000602082840312156123e357600080fd5b600082013567ffffffffffffffff8111156123fd57600080fd5b61240984828501612199565b91505092915050565b60006020828403121561242457600080fd5b6000612432848285016121c3565b91505092915050565b61244481612ad9565b82525050565b61245381612aeb565b82525050565b600061246482612a0c565b61246e8185612a22565b935061247e818560208601612b5c565b61248781612cc8565b840191505092915050565b600061249d82612a17565b6124a78185612a33565b93506124b7818560208601612b5c565b6124c081612cc8565b840191505092915050565b60006124d682612a17565b6124e08185612a44565b93506124f0818560208601612b5c565b80840191505092915050565b6000612509602d83612a33565b915061251482612cd9565b604082019050919050565b600061252c603283612a33565b915061253782612d28565b604082019050919050565b600061254f602683612a33565b915061255a82612d77565b604082019050919050565b6000612572602583612a33565b915061257d82612dc6565b604082019050919050565b6000612595601c83612a33565b91506125a082612e15565b602082019050919050565b60006125b8602483612a33565b91506125c382612e3e565b604082019050919050565b60006125db601983612a33565b91506125e682612e8d565b602082019050919050565b60006125fe602083612a33565b915061260982612eb6565b602082019050919050565b6000612621600583612a44565b915061262c82612edf565b600582019050919050565b6000612644602083612a33565b915061264f82612f08565b602082019050919050565b6000612667601883612a33565b915061267282612f31565b602082019050919050565b600061268a602183612a33565b915061269582612f5a565b604082019050919050565b60006126ad603d83612a33565b91506126b882612fa9565b604082019050919050565b60006126d0600183612a44565b91506126db82612ff8565b600182019050919050565b6126ef81612b43565b82525050565b600061270182856124cb565b915061270d82846124cb565b915061271882612614565b91508190509392505050565b600061273082846124cb565b915061273b826126c3565b915081905092915050565b600060208201905061275b600083018461243b565b92915050565b6000608082019050612776600083018761243b565b612783602083018661243b565b61279060408301856126e6565b81810360608301526127a28184612459565b905095945050505050565b60006020820190506127c2600083018461244a565b92915050565b600060208201905081810360008301526127e28184612492565b905092915050565b60006020820190508181036000830152612803816124fc565b9050919050565b600060208201905081810360008301526128238161251f565b9050919050565b6000602082019050818103600083015261284381612542565b9050919050565b6000602082019050818103600083015261286381612565565b9050919050565b6000602082019050818103600083015261288381612588565b9050919050565b600060208201905081810360008301526128a3816125ab565b9050919050565b600060208201905081810360008301526128c3816125ce565b9050919050565b600060208201905081810360008301526128e3816125f1565b9050919050565b6000602082019050818103600083015261290381612637565b9050919050565b600060208201905081810360008301526129238161265a565b9050919050565b600060208201905081810360008301526129438161267d565b9050919050565b60006020820190508181036000830152612963816126a0565b9050919050565b600060208201905061297f60008301846126e6565b92915050565b600061298f6129a0565b905061299b8282612bc1565b919050565b6000604051905090565b600067ffffffffffffffff8211156129c5576129c4612c99565b5b6129ce82612cc8565b9050602081019050919050565b600067ffffffffffffffff8211156129f6576129f5612c99565b5b6129ff82612cc8565b9050602081019050919050565b600081519050919050565b600081519050919050565b600082825260208201905092915050565b600082825260208201905092915050565b600081905092915050565b6000612a5a82612b43565b9150612a6583612b43565b9250827fffffffffffffffffffffffffffffffffffffffffffffffffffffffffffffffff03821115612a9a57612a99612c3b565b5b828201905092915050565b6000612ab082612b43565b9150612abb83612b43565b925082821015612ace57612acd612c3b565b5b828203905092915050565b6000612ae482612b23565b9050919050565b60008115159050919050565b60007fffffffff0000000000000000000000000000000000000000000000000000000082169050919050565b600073ffffffffffffffffffffffffffffffffffffffff82169050919050565b6000819050919050565b82818337600083830152505050565b60005b83811015612b7a578082015181840152602081019050612b5f565b83811115612b89576000848401525b50505050565b60006002820490506001821680612ba757607f821691505b60208210811415612bbb57612bba612c6a565b5b50919050565b612bca82612cc8565b810181811067ffffffffffffffff82111715612be957612be8612c99565b5b80604052505050565b6000612bfd82612b43565b91507fffffffffffffffffffffffffffffffffffffffffffffffffffffffffffffffff821415612c3057612c2f612c3b565b5b600182019050919050565b7f4e487b7100000000000000000000000000000000000000000000000000000000600052601160045260246000fd5b7f4e487b7100000000000000000000000000000000000000000000000000000000600052602260045260246000fd5b7f4e487b7100000000000000000000000000000000000000000000000000000000600052604160045260246000fd5b6000601f19601f8301169050919050565b7f4552433732313a2063616c6c6572206973206e6f7420746f6b656e206f776e6560008201527f72206f7220617070726f76656400000000000000000000000000000000000000602082015250565b7f4552433732313a207472616e7366657220746f206e6f6e20455243373231526560008201527f63656976657220696d706c656d656e7465720000000000000000000000000000602082015250565b7f4f776e61626c653a206e6577206f776e657220697320746865207a65726f206160008201527f6464726573730000000000000000000000000000000000000000000000000000602082015250565b7f4552433732313a207472616e736665722066726f6d20696e636f72726563742060008201527f6f776e6572000000000000000000000000000000000000000000000000000000602082015250565b7f4552433732313a20746f6b656e20616c7265616479206d696e74656400000000600082015250565b7f4552433732313a207472616e7366657220746f20746865207a65726f2061646460008201527f7265737300000000000000000000000000000000000000000000000000000000602082015250565b7f4552433732313a20617070726f766520746f2063616c6c657200000000000000600082015250565b7f4552433732313a206d696e7420746f20746865207a65726f2061646472657373600082015250565b7f2e6a736f6e000000000000000000000000000000000000000000000000000000600082015250565b7f4f776e61626c653a2063616c6c6572206973206e6f7420746865206f776e6572600082015250565b7f4552433732313a20696e76616c696420746f6b656e2049440000000000000000600082015250565b7f4552433732313a20617070726f76616c20746f2063757272656e74206f776e6560008201527f7200000000000000000000000000000000000000000000000000000000000000602082015250565b7f4552433732313a20617070726f76652063616c6c6572206973206e6f7420746f60008201527f6b656e206f776e6572206f7220617070726f76656420666f7220616c6c000000602082015250565b7f2f00000000000000000000000000000000000000000000000000000000000000600082015250565b61302a81612ad9565b811461303557600080fd5b50565b61304181612aeb565b811461304c57600080fd5b50565b61305881612af7565b811461306357600080fd5b50565b61306f81612b43565b811461307a57600080fd5b5056fea2646970667358221220f425f7ed0d2de06d75cdbf3e85ba50b4432492d405265aebeca51bb6785d76cb64736f6c63430008040033",
  "linkReferences": {},
  "deployedLinkReferences": {}
}