{
  "_format": "hh-sol-artifact-1",
  "contractName": "Data",
  "sourceName": "contracts/Data/Data.sol",
  "abi": [
    {
      "inputs": [],
      "stateMutability": "nonpayable",
      "type": "constructor"
    },
    {
      "inputs": [],
      "name": "NoOwnerOfAllTheTokens",
      "type": "error"
    },
    {
      "anonymous": false,
      "inputs": [
        {
          "indexed": true,
          "internalType": "address",
          "name": "previousOwner",
          "type": "address"
        },
        {
          "indexed": true,
          "internalType": "address",
          "name": "newOwner",
          "type": "address"
        }
      ],
      "name": "OwnershipTransferred",
      "type": "event"
    },
    {
      "inputs": [
        {
          "internalType": "address",
          "name": "",
          "type": "address"
        }
      ],
      "name": "collectionDetails",
      "outputs": [
        {
          "internalType": "address",
          "name": "creator",
          "type": "address"
        },
        {
          "internalType": "uint256",
          "name": "pricePerUnit",
          "type": "uint256"
        }
      ],
      "stateMutability": "view",
      "type": "function"
    },
    {
      "inputs": [
        {
          "internalType": "address",
          "name": "collectionAddress",
          "type": "address"
        },
        {
          "internalType": "address",
          "name": "sender",
          "type": "address"
        }
      ],
      "name": "delistCollection",
      "outputs": [],
      "stateMutability": "nonpayable",
      "type": "function"
    },
    {
      "inputs": [
        {
          "internalType": "address",
          "name": "collectionAddress",
          "type": "address"
        },
        {
          "internalType": "uint256",
          "name": "tokenId",
          "type": "uint256"
        }
      ],
      "name": "delistSingleItem",
      "outputs": [],
      "stateMutability": "nonpayable",
      "type": "function"
    },
    {
      "inputs": [
        {
          "internalType": "address",
          "name": "collectionAddress",
          "type": "address"
        }
      ],
      "name": "getUnitCollectionPrice",
      "outputs": [
        {
          "internalType": "uint256",
          "name": "",
          "type": "uint256"
        }
      ],
      "stateMutability": "view",
      "type": "function"
    },
    {
      "inputs": [
        {
          "internalType": "address",
          "name": "marketPlaceAddress",
          "type": "address"
        }
      ],
      "name": "initMarketPlaceContract",
      "outputs": [],
      "stateMutability": "nonpayable",
      "type": "function"
    },
    {
      "inputs": [
        {
          "internalType": "uint256",
          "name": "",
          "type": "uint256"
        }
      ],
      "name": "listingIdStatus",
      "outputs": [
        {
          "internalType": "bool",
          "name": "",
          "type": "bool"
        }
      ],
      "stateMutability": "view",
      "type": "function"
    },
    {
      "inputs": [],
      "name": "owner",
      "outputs": [
        {
          "internalType": "address",
          "name": "",
          "type": "address"
        }
      ],
      "stateMutability": "view",
      "type": "function"
    },
    {
      "inputs": [
        {
          "internalType": "address",
          "name": "collectionAddress",
          "type": "address"
        },
        {
          "internalType": "address",
          "name": "creator",
          "type": "address"
        },
        {
          "internalType": "uint256",
          "name": "priceInWei",
          "type": "uint256"
        },
        {
          "internalType": "uint256[]",
          "name": "IDSToList",
          "type": "uint256[]"
        }
      ],
      "name": "populateCollectionData",
      "outputs": [],
      "stateMutability": "nonpayable",
      "type": "function"
    },
    {
      "inputs": [],
      "name": "renounceOwnership",
      "outputs": [],
      "stateMutability": "nonpayable",
      "type": "function"
    },
    {
      "inputs": [
        {
          "internalType": "address",
          "name": "newOwner",
          "type": "address"
        }
      ],
      "name": "transferOwnership",
      "outputs": [],
      "stateMutability": "nonpayable",
      "type": "function"
    }
  ],
  "bytecode": "0x608060405234801561001057600080fd5b5061002d61002261003260201b60201c565b61003a60201b60201c565b6100fe565b600033905090565b60008060009054906101000a900473ffffffffffffffffffffffffffffffffffffffff169050816000806101000a81548173ffffffffffffffffffffffffffffffffffffffff021916908373ffffffffffffffffffffffffffffffffffffffff1602179055508173ffffffffffffffffffffffffffffffffffffffff168173ffffffffffffffffffffffffffffffffffffffff167f8be0079c531659141344cd1fd0a4f28419497f9722a3daafe3b4186f6b6457e060405160405180910390a35050565b61159d8061010d6000396000f3fe608060405234801561001057600080fd5b506004361061009e5760003560e01c8063a7a8611611610066578063a7a861161461011f578063b60f0dba1461013b578063d8386a6e1461016c578063e319217b1461019c578063f2fde38b146101cc5761009e565b8063328ab286146100a357806334f85e1f146100bf578063715018a6146100db5780638da5cb5b146100e55780639b03b66814610103575b600080fd5b6100bd60048036038101906100b89190611009565b6101e8565b005b6100d960048036038101906100d49190611097565b610234565b005b6100e3610520565b005b6100ed610534565b6040516100fa91906111ea565b60405180910390f35b61011d60048036038101906101189190611112565b61055d565b005b6101396004803603810190610134919061105b565b610842565b005b61015560048036038101906101509190611009565b610b28565b604051610163929190611205565b60405180910390f35b6101866004803603810190610181919061114e565b610b6c565b604051610193919061122e565b60405180910390f35b6101b660048036038101906101b19190611009565b610b8c565b6040516101c39190611289565b60405180910390f35b6101e660048036038101906101e19190611009565b610bd8565b005b6101f0610c5c565b80600160006101000a81548173ffffffffffffffffffffffffffffffffffffffff021916908373ffffffffffffffffffffffffffffffffffffffff16021790555050565b600160009054906101000a90505060005b8151811015610519578473ffffffffffffffffffffffffffffffffffffffff16636352211e8383815181106102a3577f4e487b7100000000000000000000000000000000000000000000000000000000600052603260045260246000fd5b60200260200101516040518263ffffffff1660e01b81526004016102c79190611289565b60206040518083038186803b1580156102df57600080fd5b505afa1580156102f3573d6000803e3d6000fd5b505050506040513d601f19601f820116820180604052508101906103179190611032565b73ffffffffffffffffffffffffffffffffffffffff168473ffffffffffffffffffffffffffffffffffffffff161480156103b55750600015156003600084848151811061038d577f4e487b7100000000000000000000000000000000000000000000000000000000600052603260045260246000fd5b6020026020010151815260200190815260200160002060009054906101000a900460ff161515145b156105085760405180606001604052808573ffffffffffffffffffffffffffffffffffffffff16815260200184815260200183815250600260008773ffffffffffffffffffffffffffffffffffffffff1673ffffffffffffffffffffffffffffffffffffffff16815260200190815260200160002060008201518160000160006101000a81548173ffffffffffffffffffffffffffffffffffffffff021916908373ffffffffffffffffffffffffffffffffffffffff160217905550602082015181600101556040820151816002019080519060200190610497929190610ea9565b509050506001600360008484815181106104da577f4e487b7100000000000000000000000000000000000000000000000000000000600052603260045260246000fd5b6020026020010151815260200190815260200160002060006101000a81548160ff0219169083151502179055505b8061051290611409565b9050610245565b5050505050565b610528610c5c565b6105326000610cda565b565b60008060009054906101000a900473ffffffffffffffffffffffffffffffffffffffff16905090565b600160009054906101000a90505060006105778383610d9e565b90506000600260008573ffffffffffffffffffffffffffffffffffffffff1673ffffffffffffffffffffffffffffffffffffffff16815260200190815260200160002060020180548060200260200160405190810160405280929190818152602001828054801561060757602002820191906000526020600020905b8154815260200190600101908083116105f3575b50505050509050600115156003600085815260200190815260200160002060009054906101000a900460ff16151514156107825760008290505b6001825161064f919061135c565b81101561078057600260008673ffffffffffffffffffffffffffffffffffffffff1673ffffffffffffffffffffffffffffffffffffffff1681526020019081526020016000206002016001826106a59190611306565b815481106106dc577f4e487b7100000000000000000000000000000000000000000000000000000000600052603260045260246000fd5b9060005260206000200154600260008773ffffffffffffffffffffffffffffffffffffffff1673ffffffffffffffffffffffffffffffffffffffff1681526020019081526020016000206002018281548110610761577f4e487b7100000000000000000000000000000000000000000000000000000000600052603260045260246000fd5b90600052602060002001819055508061077990611409565b9050610641565b505b60006003600085815260200190815260200160002060006101000a81548160ff021916908315150217905550600260008573ffffffffffffffffffffffffffffffffffffffff1673ffffffffffffffffffffffffffffffffffffffff168152602001908152602001600020600201805480610826577f4e487b7100000000000000000000000000000000000000000000000000000000600052603160045260246000fd5b6001900381819060005260206000200160009055905550505050565b600160009054906101000a9050506000600260008473ffffffffffffffffffffffffffffffffffffffff1673ffffffffffffffffffffffffffffffffffffffff1681526020019081526020016000206002018054806020026020016040519081016040528092919081815260200182805480156108de57602002820191906000526020600020905b8154815260200190600101908083116108ca575b5050505050905060005b8151811015610b22578373ffffffffffffffffffffffffffffffffffffffff16636352211e838381518110610946577f4e487b7100000000000000000000000000000000000000000000000000000000600052603260045260246000fd5b60200260200101516040518263ffffffff1660e01b815260040161096a9190611289565b60206040518083038186803b15801561098257600080fd5b505afa158015610996573d6000803e3d6000fd5b505050506040513d601f19601f820116820180604052508101906109ba9190611032565b73ffffffffffffffffffffffffffffffffffffffff168373ffffffffffffffffffffffffffffffffffffffff161415610a7357600260008573ffffffffffffffffffffffffffffffffffffffff1673ffffffffffffffffffffffffffffffffffffffff168152602001908152602001600020600080820160006101000a81549073ffffffffffffffffffffffffffffffffffffffff02191690556001820160009055600282016000610a6c9190610ef6565b5050610aa5565b6040517fa347b8a500000000000000000000000000000000000000000000000000000000815260040160405180910390fd5b600060036000848481518110610ae4577f4e487b7100000000000000000000000000000000000000000000000000000000600052603260045260246000fd5b6020026020010151815260200190815260200160002060006101000a81548160ff02191690831515021790555080610b1b90611409565b90506108e8565b50505050565b60026020528060005260406000206000915090508060000160009054906101000a900473ffffffffffffffffffffffffffffffffffffffff16908060010154905082565b60036020528060005260406000206000915054906101000a900460ff1681565b6000600260008373ffffffffffffffffffffffffffffffffffffffff1673ffffffffffffffffffffffffffffffffffffffff168152602001908152602001600020600101549050919050565b610be0610c5c565b600073ffffffffffffffffffffffffffffffffffffffff168173ffffffffffffffffffffffffffffffffffffffff161415610c50576040517f08c379a0000000000000000000000000000000000000000000000000000000008152600401610c4790611249565b60405180910390fd5b610c5981610cda565b50565b610c64610ea1565b73ffffffffffffffffffffffffffffffffffffffff16610c82610534565b73ffffffffffffffffffffffffffffffffffffffff1614610cd8576040517f08c379a0000000000000000000000000000000000000000000000000000000008152600401610ccf90611269565b60405180910390fd5b565b60008060009054906101000a900473ffffffffffffffffffffffffffffffffffffffff169050816000806101000a81548173ffffffffffffffffffffffffffffffffffffffff021916908373ffffffffffffffffffffffffffffffffffffffff1602179055508173ffffffffffffffffffffffffffffffffffffffff168173ffffffffffffffffffffffffffffffffffffffff167f8be0079c531659141344cd1fd0a4f28419497f9722a3daafe3b4186f6b6457e060405160405180910390a35050565b600080600090505b600260008573ffffffffffffffffffffffffffffffffffffffff1673ffffffffffffffffffffffffffffffffffffffff16815260200190815260200160002060020180549050811015610e995782600260008673ffffffffffffffffffffffffffffffffffffffff1673ffffffffffffffffffffffffffffffffffffffff1681526020019081526020016000206002018281548110610e6e577f4e487b7100000000000000000000000000000000000000000000000000000000600052603260045260246000fd5b90600052602060002001541415610e885780915050610e9b565b80610e9290611409565b9050610da6565b505b92915050565b600033905090565b828054828255906000526020600020908101928215610ee5579160200282015b82811115610ee4578251825591602001919060010190610ec9565b5b509050610ef29190610f17565b5090565b5080546000825590600052602060002090810190610f149190610f17565b50565b5b80821115610f30576000816000905550600101610f18565b5090565b6000610f47610f42846112c9565b6112a4565b90508083825260208201905082856020860282011115610f6657600080fd5b60005b85811015610f965781610f7c8882610ff4565b845260208401935060208301925050600181019050610f69565b5050509392505050565b600081359050610faf81611539565b92915050565b600081519050610fc481611539565b92915050565b600082601f830112610fdb57600080fd5b8135610feb848260208601610f34565b91505092915050565b60008135905061100381611550565b92915050565b60006020828403121561101b57600080fd5b600061102984828501610fa0565b91505092915050565b60006020828403121561104457600080fd5b600061105284828501610fb5565b91505092915050565b6000806040838503121561106e57600080fd5b600061107c85828601610fa0565b925050602061108d85828601610fa0565b9150509250929050565b600080600080608085870312156110ad57600080fd5b60006110bb87828801610fa0565b94505060206110cc87828801610fa0565b93505060406110dd87828801610ff4565b925050606085013567ffffffffffffffff8111156110fa57600080fd5b61110687828801610fca565b91505092959194509250565b6000806040838503121561112557600080fd5b600061113385828601610fa0565b925050602061114485828601610ff4565b9150509250929050565b60006020828403121561116057600080fd5b600061116e84828501610ff4565b91505092915050565b61118081611390565b82525050565b61118f816113a2565b82525050565b60006111a26026836112f5565b91506111ad826114c1565b604082019050919050565b60006111c56020836112f5565b91506111d082611510565b602082019050919050565b6111e4816113ce565b82525050565b60006020820190506111ff6000830184611177565b92915050565b600060408201905061121a6000830185611177565b61122760208301846111db565b9392505050565b60006020820190506112436000830184611186565b92915050565b6000602082019050818103600083015261126281611195565b9050919050565b60006020820190508181036000830152611282816111b8565b9050919050565b600060208201905061129e60008301846111db565b92915050565b60006112ae6112bf565b90506112ba82826113d8565b919050565b6000604051905090565b600067ffffffffffffffff8211156112e4576112e3611481565b5b602082029050602081019050919050565b600082825260208201905092915050565b6000611311826113ce565b915061131c836113ce565b9250827fffffffffffffffffffffffffffffffffffffffffffffffffffffffffffffffff0382111561135157611350611452565b5b828201905092915050565b6000611367826113ce565b9150611372836113ce565b92508282101561138557611384611452565b5b828203905092915050565b600061139b826113ae565b9050919050565b60008115159050919050565b600073ffffffffffffffffffffffffffffffffffffffff82169050919050565b6000819050919050565b6113e1826114b0565b810181811067ffffffffffffffff82111715611400576113ff611481565b5b80604052505050565b6000611414826113ce565b91507fffffffffffffffffffffffffffffffffffffffffffffffffffffffffffffffff82141561144757611446611452565b5b600182019050919050565b7f4e487b7100000000000000000000000000000000000000000000000000000000600052601160045260246000fd5b7f4e487b7100000000000000000000000000000000000000000000000000000000600052604160045260246000fd5b6000601f19601f8301169050919050565b7f4f776e61626c653a206e6577206f776e657220697320746865207a65726f206160008201527f6464726573730000000000000000000000000000000000000000000000000000602082015250565b7f4f776e61626c653a2063616c6c6572206973206e6f7420746865206f776e6572600082015250565b61154281611390565b811461154d57600080fd5b50565b611559816113ce565b811461156457600080fd5b5056fea2646970667358221220f24aec7f1e9d87db688dde32fd89a6bd6e1136687932ed641fc78fdb3b11a07164736f6c63430008040033",
  "linkReferences": {},
  "deployedLinkReferences": {}
}