{
  "_format": "hh-sol-artifact-1",
  "contractName": "DAO",
  "sourceName": "contracts/DAO/DAO.sol",
  "abi": [
    {
      "inputs": [],
      "stateMutability": "nonpayable",
      "type": "constructor"
    },
    {
      "inputs": [],
      "name": "FaucetEmptyOrOwnerCaller",
      "type": "error"
    },
    {
      "inputs": [],
      "name": "SomeReason",
      "type": "error"
    },
    {
      "inputs": [],
      "name": "noEnoughDAOTokenToCreateProposal",
      "type": "error"
    },
    {
      "inputs": [],
      "name": "setCorrectPrice",
      "type": "error"
    },
    {
      "inputs": [],
      "name": "setRightAmount",
      "type": "error"
    },
    {
      "inputs": [],
      "name": "timingOrNoOnProposal",
      "type": "error"
    },
    {
      "anonymous": false,
      "inputs": [
        {
          "indexed": true,
          "internalType": "address",
          "name": "previousOwner",
          "type": "address"
        },
        {
          "indexed": true,
          "internalType": "address",
          "name": "newOwner",
          "type": "address"
        }
      ],
      "name": "OwnershipTransferred",
      "type": "event"
    },
    {
      "inputs": [
        {
          "internalType": "address",
          "name": "",
          "type": "address"
        },
        {
          "internalType": "uint256",
          "name": "",
          "type": "uint256"
        }
      ],
      "name": "alreadyVote",
      "outputs": [
        {
          "internalType": "bool",
          "name": "",
          "type": "bool"
        }
      ],
      "stateMutability": "view",
      "type": "function"
    },
    {
      "inputs": [],
      "name": "buyDAOTokens",
      "outputs": [],
      "stateMutability": "payable",
      "type": "function"
    },
    {
      "inputs": [
        {
          "internalType": "address",
          "name": "collectionAddress",
          "type": "address"
        },
        {
          "internalType": "uint256",
          "name": "tokenId",
          "type": "uint256"
        },
        {
          "internalType": "uint256",
          "name": "deadline",
          "type": "uint256"
        }
      ],
      "name": "createProposalToBuy",
      "outputs": [],
      "stateMutability": "nonpayable",
      "type": "function"
    },
    {
      "inputs": [
        {
          "internalType": "uint256",
          "name": "proposalId",
          "type": "uint256"
        }
      ],
      "name": "executeProposal",
      "outputs": [],
      "stateMutability": "nonpayable",
      "type": "function"
    },
    {
      "inputs": [
        {
          "internalType": "address",
          "name": "daoTokenAddress",
          "type": "address"
        }
      ],
      "name": "initDAOToken",
      "outputs": [],
      "stateMutability": "nonpayable",
      "type": "function"
    },
    {
      "inputs": [
        {
          "internalType": "address",
          "name": "dataAddress",
          "type": "address"
        }
      ],
      "name": "initData",
      "outputs": [],
      "stateMutability": "nonpayable",
      "type": "function"
    },
    {
      "inputs": [
        {
          "internalType": "address",
          "name": "marketPlaceAddress",
          "type": "address"
        }
      ],
      "name": "initMarketplace",
      "outputs": [],
      "stateMutability": "nonpayable",
      "type": "function"
    },
    {
      "inputs": [
        {
          "internalType": "address",
          "name": "",
          "type": "address"
        },
        {
          "internalType": "address",
          "name": "",
          "type": "address"
        },
        {
          "internalType": "uint256",
          "name": "",
          "type": "uint256"
        },
        {
          "internalType": "bytes",
          "name": "",
          "type": "bytes"
        }
      ],
      "name": "onERC721Received",
      "outputs": [
        {
          "internalType": "bytes4",
          "name": "",
          "type": "bytes4"
        }
      ],
      "stateMutability": "nonpayable",
      "type": "function"
    },
    {
      "inputs": [],
      "name": "owner",
      "outputs": [
        {
          "internalType": "address",
          "name": "",
          "type": "address"
        }
      ],
      "stateMutability": "view",
      "type": "function"
    },
    {
      "inputs": [
        {
          "internalType": "uint256",
          "name": "",
          "type": "uint256"
        }
      ],
      "name": "proposalDetails",
      "outputs": [
        {
          "internalType": "address",
          "name": "collectionAddress",
          "type": "address"
        },
        {
          "internalType": "uint256",
          "name": "tokenId",
          "type": "uint256"
        },
        {
          "internalType": "uint256",
          "name": "price",
          "type": "uint256"
        },
        {
          "internalType": "uint256",
          "name": "voteYes",
          "type": "uint256"
        },
        {
          "internalType": "uint256",
          "name": "voteNo",
          "type": "uint256"
        },
        {
          "internalType": "uint256",
          "name": "timeline",
          "type": "uint256"
        }
      ],
      "stateMutability": "view",
      "type": "function"
    },
    {
      "inputs": [],
      "name": "renounceOwnership",
      "outputs": [],
      "stateMutability": "nonpayable",
      "type": "function"
    },
    {
      "inputs": [
        {
          "internalType": "address",
          "name": "newOwner",
          "type": "address"
        }
      ],
      "name": "transferOwnership",
      "outputs": [],
      "stateMutability": "nonpayable",
      "type": "function"
    },
    {
      "inputs": [
        {
          "internalType": "uint256",
          "name": "proposalId",
          "type": "uint256"
        }
      ],
      "name": "voteNoOnProposal",
      "outputs": [],
      "stateMutability": "nonpayable",
      "type": "function"
    },
    {
      "inputs": [
        {
          "internalType": "uint256",
          "name": "proposalId",
          "type": "uint256"
        }
      ],
      "name": "voteYesOnProposal",
      "outputs": [],
      "stateMutability": "nonpayable",
      "type": "function"
    }
  ],
  "bytecode": "0x608060405234801561001057600080fd5b5061002d61002261003260201b60201c565b61003a60201b60201c565b6100fe565b600033905090565b60008060009054906101000a900473ffffffffffffffffffffffffffffffffffffffff169050816000806101000a81548173ffffffffffffffffffffffffffffffffffffffff021916908373ffffffffffffffffffffffffffffffffffffffff1602179055508173ffffffffffffffffffffffffffffffffffffffff168173ffffffffffffffffffffffffffffffffffffffff167f8be0079c531659141344cd1fd0a4f28419497f9722a3daafe3b4186f6b6457e060405160405180910390a35050565b611c388061010d6000396000f3fe6080604052600436106100dd5760003560e01c8063715018a61161007f578063ae49878d11610059578063ae49878d14610299578063c665905b146102c2578063f06d4b88146102ff578063f2fde38b14610309576100dd565b8063715018a61461022e5780638da5cb5b146102455780639885312114610270576100dd565b806316e9eaec116100bb57806316e9eaec146101715780633c45dde9146101b357806351bf5f30146101dc578063581640bb14610205576100dd565b8063098c54eb146100e25780630d61b5191461010b578063150b7a0214610134575b600080fd5b3480156100ee57600080fd5b506101096004803603810190610104919061159d565b610332565b005b34801561011757600080fd5b50610132600480360381019061012d91906116f5565b610500565b005b34801561014057600080fd5b5061015b600480360381019061015691906115c6565b610712565b60405161016891906118f8565b60405180910390f35b34801561017d57600080fd5b50610198600480360381019061019391906116f5565b610726565b6040516101aa9695949392919061187c565b60405180910390f35b3480156101bf57600080fd5b506101da60048036038101906101d5919061159d565b610782565b005b3480156101e857600080fd5b5061020360048036038101906101fe919061167d565b6107ce565b005b34801561021157600080fd5b5061022c600480360381019061022791906116f5565b610a61565b005b34801561023a57600080fd5b50610243610d12565b005b34801561025157600080fd5b5061025a610d26565b60405161026791906117d8565b60405180910390f35b34801561027c57600080fd5b50610297600480360381019061029291906116f5565b610d4f565b005b3480156102a557600080fd5b506102c060048036038101906102bb919061159d565b611000565b005b3480156102ce57600080fd5b506102e960048036038101906102e49190611641565b61104c565b6040516102f691906118dd565b60405180910390f35b61030761107b565b005b34801561031557600080fd5b50610330600480360381019061032b919061159d565b6112ef565b005b61033a611373565b80600360006101000a81548173ffffffffffffffffffffffffffffffffffffffff021916908373ffffffffffffffffffffffffffffffffffffffff1602179055506000600360009054906101000a900473ffffffffffffffffffffffffffffffffffffffff1673ffffffffffffffffffffffffffffffffffffffff166370a08231600360009054906101000a900473ffffffffffffffffffffffffffffffffffffffff166040518263ffffffff1660e01b81526004016103fa91906117d8565b60206040518083038186803b15801561041257600080fd5b505afa158015610426573d6000803e3d6000fd5b505050506040513d601f19601f8201168201806040525081019061044a919061171e565b9050600360009054906101000a900473ffffffffffffffffffffffffffffffffffffffff1673ffffffffffffffffffffffffffffffffffffffff16633950935130836040518363ffffffff1660e01b81526004016104a9929190611853565b602060405180830381600087803b1580156104c357600080fd5b505af11580156104d7573d6000803e3d6000fd5b505050506040513d601f19601f820116820180604052508101906104fb91906116cc565b505050565b610508611373565b60006005600083815260200190815260200160002060050154905060006005600084815260200190815260200160002060030154905060006005600085815260200190815260200160002060040154905060006005600086815260200190815260200160002060010154905060006005600087815260200190815260200160002060000160009054906101000a900473ffffffffffffffffffffffffffffffffffffffff16905060006005600088815260200190815260200160002060020154905085421180156105d857508385115b156106d757600260009054906101000a900473ffffffffffffffffffffffffffffffffffffffff1673ffffffffffffffffffffffffffffffffffffffff16634ddf4f8f8284866040518463ffffffff1660e01b815260040161063b929190611853565b6000604051808303818588803b15801561065457600080fd5b505af1158015610668573d6000803e3d6000fd5b505050505060056000888152602001908152602001600020600080820160006101000a81549073ffffffffffffffffffffffffffffffffffffffff0219169055600182016000905560028201600090556003820160009055600482016000905560058201600090555050610709565b6040517faee9fdb700000000000000000000000000000000000000000000000000000000815260040160405180910390fd5b50505050505050565b600063150b7a0260e01b9050949350505050565b60056020528060005260406000206000915090508060000160009054906101000a900473ffffffffffffffffffffffffffffffffffffffff16908060010154908060020154908060030154908060040154908060050154905086565b61078a611373565b80600260006101000a81548173ffffffffffffffffffffffffffffffffffffffff021916908373ffffffffffffffffffffffffffffffffffffffff16021790555050565b6000600460009054906101000a900473ffffffffffffffffffffffffffffffffffffffff1673ffffffffffffffffffffffffffffffffffffffff1663e319217b856040518263ffffffff1660e01b815260040161082b91906117d8565b60206040518083038186803b15801561084357600080fd5b505afa158015610857573d6000803e3d6000fd5b505050506040513d601f19601f8201168201806040525081019061087b919061171e565b90506801158e460913d00000600360009054906101000a900473ffffffffffffffffffffffffffffffffffffffff1673ffffffffffffffffffffffffffffffffffffffff166370a08231336040518263ffffffff1660e01b81526004016108e291906117d8565b60206040518083038186803b1580156108fa57600080fd5b505afa15801561090e573d6000803e3d6000fd5b505050506040513d601f19601f82011682018060405250810190610932919061171e565b10610a295761094160016113f1565b600061094d6001611407565b90506040518060c001604052808673ffffffffffffffffffffffffffffffffffffffff1681526020018581526020018381526020016000815260200160008152602001848152506005600083815260200190815260200160002060008201518160000160006101000a81548173ffffffffffffffffffffffffffffffffffffffff021916908373ffffffffffffffffffffffffffffffffffffffff1602179055506020820151816001015560408201518160020155606082015181600301556080820151816004015560a0820151816005015590505050610a5b565b6040517fbf57bb7f00000000000000000000000000000000000000000000000000000000815260040160405180910390fd5b50505050565b670de0b6b3a7640000600360009054906101000a900473ffffffffffffffffffffffffffffffffffffffff1673ffffffffffffffffffffffffffffffffffffffff166370a08231336040518263ffffffff1660e01b8152600401610ac591906117d8565b60206040518083038186803b158015610add57600080fd5b505afa158015610af1573d6000803e3d6000fd5b505050506040513d601f19601f82011682018060405250810190610b15919061171e565b118015610b83575060001515600660003373ffffffffffffffffffffffffffffffffffffffff1673ffffffffffffffffffffffffffffffffffffffff168152602001908152602001600020600083815260200190815260200160002060009054906101000a900460ff161515145b8015610ba5575060056000828152602001908152602001600020600501544211155b15610cdd576001600560008381526020019081526020016000206004016000828254610bd191906119ba565b92505081905550600360009054906101000a900473ffffffffffffffffffffffffffffffffffffffff1673ffffffffffffffffffffffffffffffffffffffff16639dc29fac33670de0b6b3a76400006040518363ffffffff1660e01b8152600401610c3d92919061182a565b600060405180830381600087803b158015610c5757600080fd5b505af1158015610c6b573d6000803e3d6000fd5b505050506001600660003373ffffffffffffffffffffffffffffffffffffffff1673ffffffffffffffffffffffffffffffffffffffff168152602001908152602001600020600083815260200190815260200160002060006101000a81548160ff021916908315150217905550610d0f565b6040517f9a34351a00000000000000000000000000000000000000000000000000000000815260040160405180910390fd5b50565b610d1a611373565b610d246000611415565b565b60008060009054906101000a900473ffffffffffffffffffffffffffffffffffffffff16905090565b670de0b6b3a7640000600360009054906101000a900473ffffffffffffffffffffffffffffffffffffffff1673ffffffffffffffffffffffffffffffffffffffff166370a08231336040518263ffffffff1660e01b8152600401610db391906117d8565b60206040518083038186803b158015610dcb57600080fd5b505afa158015610ddf573d6000803e3d6000fd5b505050506040513d601f19601f82011682018060405250810190610e03919061171e565b118015610e71575060001515600660003373ffffffffffffffffffffffffffffffffffffffff1673ffffffffffffffffffffffffffffffffffffffff168152602001908152602001600020600083815260200190815260200160002060009054906101000a900460ff161515145b8015610e93575060056000828152602001908152602001600020600501544211155b15610fcb576001600660003373ffffffffffffffffffffffffffffffffffffffff1673ffffffffffffffffffffffffffffffffffffffff168152602001908152602001600020600083815260200190815260200160002060006101000a81548160ff0219169083151502179055506001600560008381526020019081526020016000206003016000828254610f2891906119ba565b92505081905550600360009054906101000a900473ffffffffffffffffffffffffffffffffffffffff1673ffffffffffffffffffffffffffffffffffffffff16639dc29fac33670de0b6b3a76400006040518363ffffffff1660e01b8152600401610f9492919061182a565b600060405180830381600087803b158015610fae57600080fd5b505af1158015610fc2573d6000803e3d6000fd5b50505050610ffd565b6040517f9a34351a00000000000000000000000000000000000000000000000000000000815260040160405180910390fd5b50565b611008611373565b80600460006101000a81548173ffffffffffffffffffffffffffffffffffffffff021916908373ffffffffffffffffffffffffffffffffffffffff16021790555050565b60066020528160005260406000206020528060005260406000206000915091509054906101000a900460ff1681565b6000678ac7230489e800009050662386f26fc100003414156112ba5780600360009054906101000a900473ffffffffffffffffffffffffffffffffffffffff1673ffffffffffffffffffffffffffffffffffffffff166370a08231600360009054906101000a900473ffffffffffffffffffffffffffffffffffffffff166040518263ffffffff1660e01b815260040161111591906117d8565b60206040518083038186803b15801561112d57600080fd5b505afa158015611141573d6000803e3d6000fd5b505050506040513d601f19601f82011682018060405250810190611165919061171e565b1180156111a55750611175610d26565b73ffffffffffffffffffffffffffffffffffffffff163373ffffffffffffffffffffffffffffffffffffffff1614155b1561128357600360009054906101000a900473ffffffffffffffffffffffffffffffffffffffff1673ffffffffffffffffffffffffffffffffffffffff166323b872dd600360009054906101000a900473ffffffffffffffffffffffffffffffffffffffff1633846040518463ffffffff1660e01b815260040161122b939291906117f3565b602060405180830381600087803b15801561124557600080fd5b505af1158015611259573d6000803e3d6000fd5b505050506040513d601f19601f8201168201806040525081019061127d91906116cc565b506112b5565b6040517f38f580d900000000000000000000000000000000000000000000000000000000815260040160405180910390fd5b6112ec565b6040517fa3a1344e00000000000000000000000000000000000000000000000000000000815260040160405180910390fd5b50565b6112f7611373565b600073ffffffffffffffffffffffffffffffffffffffff168173ffffffffffffffffffffffffffffffffffffffff161415611367576040517f08c379a000000000000000000000000000000000000000000000000000000000815260040161135e90611913565b60405180910390fd5b61137081611415565b50565b61137b6114d9565b73ffffffffffffffffffffffffffffffffffffffff16611399610d26565b73ffffffffffffffffffffffffffffffffffffffff16146113ef576040517f08c379a00000000000000000000000000000000000000000000000000000000081526004016113e690611933565b60405180910390fd5b565b6001816000016000828254019250508190555050565b600081600001549050919050565b60008060009054906101000a900473ffffffffffffffffffffffffffffffffffffffff169050816000806101000a81548173ffffffffffffffffffffffffffffffffffffffff021916908373ffffffffffffffffffffffffffffffffffffffff1602179055508173ffffffffffffffffffffffffffffffffffffffff168173ffffffffffffffffffffffffffffffffffffffff167f8be0079c531659141344cd1fd0a4f28419497f9722a3daafe3b4186f6b6457e060405160405180910390a35050565b600033905090565b60006114f46114ef84611978565b611953565b90508281526020810184848401111561150c57600080fd5b611517848285611a96565b509392505050565b60008135905061152e81611bbd565b92915050565b60008151905061154381611bd4565b92915050565b600082601f83011261155a57600080fd5b813561156a8482602086016114e1565b91505092915050565b60008135905061158281611beb565b92915050565b60008151905061159781611beb565b92915050565b6000602082840312156115af57600080fd5b60006115bd8482850161151f565b91505092915050565b600080600080608085870312156115dc57600080fd5b60006115ea8782880161151f565b94505060206115fb8782880161151f565b935050604061160c87828801611573565b925050606085013567ffffffffffffffff81111561162957600080fd5b61163587828801611549565b91505092959194509250565b6000806040838503121561165457600080fd5b60006116628582860161151f565b925050602061167385828601611573565b9150509250929050565b60008060006060848603121561169257600080fd5b60006116a08682870161151f565b93505060206116b186828701611573565b92505060406116c286828701611573565b9150509250925092565b6000602082840312156116de57600080fd5b60006116ec84828501611534565b91505092915050565b60006020828403121561170757600080fd5b600061171584828501611573565b91505092915050565b60006020828403121561173057600080fd5b600061173e84828501611588565b91505092915050565b61175081611a10565b82525050565b61175f81611a22565b82525050565b61176e81611a2e565b82525050565b61177d81611a84565b82525050565b60006117906026836119a9565b915061179b82611b45565b604082019050919050565b60006117b36020836119a9565b91506117be82611b94565b602082019050919050565b6117d281611a7a565b82525050565b60006020820190506117ed6000830184611747565b92915050565b60006060820190506118086000830186611747565b6118156020830185611747565b61182260408301846117c9565b949350505050565b600060408201905061183f6000830185611747565b61184c6020830184611774565b9392505050565b60006040820190506118686000830185611747565b61187560208301846117c9565b9392505050565b600060c0820190506118916000830189611747565b61189e60208301886117c9565b6118ab60408301876117c9565b6118b860608301866117c9565b6118c560808301856117c9565b6118d260a08301846117c9565b979650505050505050565b60006020820190506118f26000830184611756565b92915050565b600060208201905061190d6000830184611765565b92915050565b6000602082019050818103600083015261192c81611783565b9050919050565b6000602082019050818103600083015261194c816117a6565b9050919050565b600061195d61196e565b90506119698282611aa5565b919050565b6000604051905090565b600067ffffffffffffffff82111561199357611992611b05565b5b61199c82611b34565b9050602081019050919050565b600082825260208201905092915050565b60006119c582611a7a565b91506119d083611a7a565b9250827fffffffffffffffffffffffffffffffffffffffffffffffffffffffffffffffff03821115611a0557611a04611ad6565b5b828201905092915050565b6000611a1b82611a5a565b9050919050565b60008115159050919050565b60007fffffffff0000000000000000000000000000000000000000000000000000000082169050919050565b600073ffffffffffffffffffffffffffffffffffffffff82169050919050565b6000819050919050565b6000611a8f82611a7a565b9050919050565b82818337600083830152505050565b611aae82611b34565b810181811067ffffffffffffffff82111715611acd57611acc611b05565b5b80604052505050565b7f4e487b7100000000000000000000000000000000000000000000000000000000600052601160045260246000fd5b7f4e487b7100000000000000000000000000000000000000000000000000000000600052604160045260246000fd5b6000601f19601f8301169050919050565b7f4f776e61626c653a206e6577206f776e657220697320746865207a65726f206160008201527f6464726573730000000000000000000000000000000000000000000000000000602082015250565b7f4f776e61626c653a2063616c6c6572206973206e6f7420746865206f776e6572600082015250565b611bc681611a10565b8114611bd157600080fd5b50565b611bdd81611a22565b8114611be857600080fd5b50565b611bf481611a7a565b8114611bff57600080fd5b5056fea2646970667358221220d698a9c82cb04eb2906affcbf74c4c83346e22dedc0a85b9c19e12e2122a8d4064736f6c63430008040033",
  "linkReferences": {},
  "deployedLinkReferences": {}
}