{
  "_format": "hh-sol-artifact-1",
  "contractName": "DAO",
  "sourceName": "contracts/DAO/DAO.sol",
  "abi": [
    {
      "inputs": [],
      "stateMutability": "nonpayable",
      "type": "constructor"
    },
    {
      "inputs": [],
      "name": "FaucetEmptyOrOwnerCaller",
      "type": "error"
    },
    {
      "inputs": [],
      "name": "SomeReason",
      "type": "error"
    },
    {
      "inputs": [],
      "name": "noEnoughDAOTokenToCreateProposal",
      "type": "error"
    },
    {
      "inputs": [],
      "name": "setCorrectPrice",
      "type": "error"
    },
    {
      "inputs": [],
      "name": "setRightAmount",
      "type": "error"
    },
    {
      "anonymous": false,
      "inputs": [
        {
          "indexed": true,
          "internalType": "address",
          "name": "previousOwner",
          "type": "address"
        },
        {
          "indexed": true,
          "internalType": "address",
          "name": "newOwner",
          "type": "address"
        }
      ],
      "name": "OwnershipTransferred",
      "type": "event"
    },
    {
      "inputs": [
        {
          "internalType": "address",
          "name": "",
          "type": "address"
        },
        {
          "internalType": "uint256",
          "name": "",
          "type": "uint256"
        }
      ],
      "name": "alreadyVote",
      "outputs": [
        {
          "internalType": "bool",
          "name": "",
          "type": "bool"
        }
      ],
      "stateMutability": "view",
      "type": "function"
    },
    {
      "inputs": [],
      "name": "buyDAOTokens",
      "outputs": [],
      "stateMutability": "payable",
      "type": "function"
    },
    {
      "inputs": [
        {
          "internalType": "address",
          "name": "collectionAddress",
          "type": "address"
        },
        {
          "internalType": "uint256",
          "name": "tokenId",
          "type": "uint256"
        },
        {
          "internalType": "uint256",
          "name": "deadline",
          "type": "uint256"
        }
      ],
      "name": "createProposalToBuy",
      "outputs": [],
      "stateMutability": "nonpayable",
      "type": "function"
    },
    {
      "inputs": [
        {
          "internalType": "uint256",
          "name": "proposalId",
          "type": "uint256"
        }
      ],
      "name": "executeProposal",
      "outputs": [],
      "stateMutability": "nonpayable",
      "type": "function"
    },
    {
      "inputs": [
        {
          "internalType": "address",
          "name": "daoTokenAddress",
          "type": "address"
        }
      ],
      "name": "initDAOToken",
      "outputs": [],
      "stateMutability": "nonpayable",
      "type": "function"
    },
    {
      "inputs": [
        {
          "internalType": "address",
          "name": "dataAddress",
          "type": "address"
        }
      ],
      "name": "initData",
      "outputs": [],
      "stateMutability": "nonpayable",
      "type": "function"
    },
    {
      "inputs": [
        {
          "internalType": "address",
          "name": "marketPlaceAddress",
          "type": "address"
        }
      ],
      "name": "initMarketplace",
      "outputs": [],
      "stateMutability": "nonpayable",
      "type": "function"
    },
    {
      "inputs": [
        {
          "internalType": "address",
          "name": "",
          "type": "address"
        },
        {
          "internalType": "address",
          "name": "",
          "type": "address"
        },
        {
          "internalType": "uint256",
          "name": "",
          "type": "uint256"
        },
        {
          "internalType": "bytes",
          "name": "",
          "type": "bytes"
        }
      ],
      "name": "onERC721Received",
      "outputs": [
        {
          "internalType": "bytes4",
          "name": "",
          "type": "bytes4"
        }
      ],
      "stateMutability": "nonpayable",
      "type": "function"
    },
    {
      "inputs": [],
      "name": "owner",
      "outputs": [
        {
          "internalType": "address",
          "name": "",
          "type": "address"
        }
      ],
      "stateMutability": "view",
      "type": "function"
    },
    {
      "inputs": [
        {
          "internalType": "uint256",
          "name": "",
          "type": "uint256"
        }
      ],
      "name": "proposalDetails",
      "outputs": [
        {
          "internalType": "address",
          "name": "collectionAddress",
          "type": "address"
        },
        {
          "internalType": "uint256",
          "name": "tokenId",
          "type": "uint256"
        },
        {
          "internalType": "uint256",
          "name": "price",
          "type": "uint256"
        },
        {
          "internalType": "uint256",
          "name": "voteYes",
          "type": "uint256"
        },
        {
          "internalType": "uint256",
          "name": "voteNo",
          "type": "uint256"
        },
        {
          "internalType": "uint256",
          "name": "timeline",
          "type": "uint256"
        }
      ],
      "stateMutability": "view",
      "type": "function"
    },
    {
      "inputs": [],
      "name": "renounceOwnership",
      "outputs": [],
      "stateMutability": "nonpayable",
      "type": "function"
    },
    {
      "inputs": [
        {
          "internalType": "address",
          "name": "newOwner",
          "type": "address"
        }
      ],
      "name": "transferOwnership",
      "outputs": [],
      "stateMutability": "nonpayable",
      "type": "function"
    },
    {
      "inputs": [
        {
          "internalType": "uint256",
          "name": "proposalId",
          "type": "uint256"
        }
      ],
      "name": "voteNoOnProposal",
      "outputs": [],
      "stateMutability": "nonpayable",
      "type": "function"
    },
    {
      "inputs": [
        {
          "internalType": "uint256",
          "name": "proposalId",
          "type": "uint256"
        }
      ],
      "name": "voteYesOnProposal",
      "outputs": [],
      "stateMutability": "nonpayable",
      "type": "function"
    }
  ],
  "bytecode": "0x608060405234801561001057600080fd5b5061002d61002261003260201b60201c565b61003a60201b60201c565b6100fe565b600033905090565b60008060009054906101000a900473ffffffffffffffffffffffffffffffffffffffff169050816000806101000a81548173ffffffffffffffffffffffffffffffffffffffff021916908373ffffffffffffffffffffffffffffffffffffffff1602179055508173ffffffffffffffffffffffffffffffffffffffff168173ffffffffffffffffffffffffffffffffffffffff167f8be0079c531659141344cd1fd0a4f28419497f9722a3daafe3b4186f6b6457e060405160405180910390a35050565b611bff8061010d6000396000f3fe6080604052600436106100dd5760003560e01c8063715018a61161007f578063ae49878d11610059578063ae49878d14610299578063c665905b146102c2578063f06d4b88146102ff578063f2fde38b14610309576100dd565b8063715018a61461022e5780638da5cb5b146102455780639885312114610270576100dd565b806316e9eaec116100bb57806316e9eaec146101715780633c45dde9146101b357806351bf5f30146101dc578063581640bb14610205576100dd565b8063098c54eb146100e25780630d61b5191461010b578063150b7a0214610134575b600080fd5b3480156100ee57600080fd5b5061010960048036038101906101049190611564565b610332565b005b34801561011757600080fd5b50610132600480360381019061012d91906116bc565b610500565b005b34801561014057600080fd5b5061015b6004803603810190610156919061158d565b6106d9565b60405161016891906118bf565b60405180910390f35b34801561017d57600080fd5b50610198600480360381019061019391906116bc565b6106ed565b6040516101aa96959493929190611843565b60405180910390f35b3480156101bf57600080fd5b506101da60048036038101906101d59190611564565b610749565b005b3480156101e857600080fd5b5061020360048036038101906101fe9190611644565b610795565b005b34801561021157600080fd5b5061022c600480360381019061022791906116bc565b610a28565b005b34801561023a57600080fd5b50610243610cd9565b005b34801561025157600080fd5b5061025a610ced565b604051610267919061179f565b60405180910390f35b34801561027c57600080fd5b50610297600480360381019061029291906116bc565b610d16565b005b3480156102a557600080fd5b506102c060048036038101906102bb9190611564565b610fc7565b005b3480156102ce57600080fd5b506102e960048036038101906102e49190611608565b611013565b6040516102f691906118a4565b60405180910390f35b610307611042565b005b34801561031557600080fd5b50610330600480360381019061032b9190611564565b6112b6565b005b61033a61133a565b80600360006101000a81548173ffffffffffffffffffffffffffffffffffffffff021916908373ffffffffffffffffffffffffffffffffffffffff1602179055506000600360009054906101000a900473ffffffffffffffffffffffffffffffffffffffff1673ffffffffffffffffffffffffffffffffffffffff166370a08231600360009054906101000a900473ffffffffffffffffffffffffffffffffffffffff166040518263ffffffff1660e01b81526004016103fa919061179f565b60206040518083038186803b15801561041257600080fd5b505afa158015610426573d6000803e3d6000fd5b505050506040513d601f19601f8201168201806040525081019061044a91906116e5565b9050600360009054906101000a900473ffffffffffffffffffffffffffffffffffffffff1673ffffffffffffffffffffffffffffffffffffffff16633950935130836040518363ffffffff1660e01b81526004016104a992919061181a565b602060405180830381600087803b1580156104c357600080fd5b505af11580156104d7573d6000803e3d6000fd5b505050506040513d601f19601f820116820180604052508101906104fb9190611693565b505050565b60006005600083815260200190815260200160002060050154905060006005600084815260200190815260200160002060030154905060006005600085815260200190815260200160002060040154905060006005600086815260200190815260200160002060010154905060006005600087815260200190815260200160002060000160009054906101000a900473ffffffffffffffffffffffffffffffffffffffff16905060006005600088815260200190815260200160002060020154905042861180156105d057508385115b1561066a57600260009054906101000a900473ffffffffffffffffffffffffffffffffffffffff1673ffffffffffffffffffffffffffffffffffffffff16634ddf4f8f8284866040518463ffffffff1660e01b815260040161063392919061181a565b6000604051808303818588803b15801561064c57600080fd5b505af1158015610660573d6000803e3d6000fd5b50505050506106d0565b60056000888152602001908152602001600020600080820160006101000a81549073ffffffffffffffffffffffffffffffffffffffff02191690556001820160009055600282016000905560038201600090556004820160009055600582016000905550505b50505050505050565b600063150b7a0260e01b9050949350505050565b60056020528060005260406000206000915090508060000160009054906101000a900473ffffffffffffffffffffffffffffffffffffffff16908060010154908060020154908060030154908060040154908060050154905086565b61075161133a565b80600260006101000a81548173ffffffffffffffffffffffffffffffffffffffff021916908373ffffffffffffffffffffffffffffffffffffffff16021790555050565b6000600460009054906101000a900473ffffffffffffffffffffffffffffffffffffffff1673ffffffffffffffffffffffffffffffffffffffff1663e319217b856040518263ffffffff1660e01b81526004016107f2919061179f565b60206040518083038186803b15801561080a57600080fd5b505afa15801561081e573d6000803e3d6000fd5b505050506040513d601f19601f8201168201806040525081019061084291906116e5565b90506801158e460913d00000600360009054906101000a900473ffffffffffffffffffffffffffffffffffffffff1673ffffffffffffffffffffffffffffffffffffffff166370a08231336040518263ffffffff1660e01b81526004016108a9919061179f565b60206040518083038186803b1580156108c157600080fd5b505afa1580156108d5573d6000803e3d6000fd5b505050506040513d601f19601f820116820180604052508101906108f991906116e5565b106109f05761090860016113b8565b600061091460016113ce565b90506040518060c001604052808673ffffffffffffffffffffffffffffffffffffffff1681526020018581526020018381526020016000815260200160008152602001848152506005600083815260200190815260200160002060008201518160000160006101000a81548173ffffffffffffffffffffffffffffffffffffffff021916908373ffffffffffffffffffffffffffffffffffffffff1602179055506020820151816001015560408201518160020155606082015181600301556080820151816004015560a0820151816005015590505050610a22565b6040517fbf57bb7f00000000000000000000000000000000000000000000000000000000815260040160405180910390fd5b50505050565b670de0b6b3a7640000600360009054906101000a900473ffffffffffffffffffffffffffffffffffffffff1673ffffffffffffffffffffffffffffffffffffffff166370a08231336040518263ffffffff1660e01b8152600401610a8c919061179f565b60206040518083038186803b158015610aa457600080fd5b505afa158015610ab8573d6000803e3d6000fd5b505050506040513d601f19601f82011682018060405250810190610adc91906116e5565b118015610b4a575060001515600660003373ffffffffffffffffffffffffffffffffffffffff1673ffffffffffffffffffffffffffffffffffffffff168152602001908152602001600020600083815260200190815260200160002060009054906101000a900460ff161515145b8015610b6c575060056000828152602001908152602001600020600501544211155b15610ca4576001600560008381526020019081526020016000206004016000828254610b989190611981565b92505081905550600360009054906101000a900473ffffffffffffffffffffffffffffffffffffffff1673ffffffffffffffffffffffffffffffffffffffff16639dc29fac33670de0b6b3a76400006040518363ffffffff1660e01b8152600401610c049291906117f1565b600060405180830381600087803b158015610c1e57600080fd5b505af1158015610c32573d6000803e3d6000fd5b505050506001600660003373ffffffffffffffffffffffffffffffffffffffff1673ffffffffffffffffffffffffffffffffffffffff168152602001908152602001600020600083815260200190815260200160002060006101000a81548160ff021916908315150217905550610cd6565b6040517f9a34351a00000000000000000000000000000000000000000000000000000000815260040160405180910390fd5b50565b610ce161133a565b610ceb60006113dc565b565b60008060009054906101000a900473ffffffffffffffffffffffffffffffffffffffff16905090565b670de0b6b3a7640000600360009054906101000a900473ffffffffffffffffffffffffffffffffffffffff1673ffffffffffffffffffffffffffffffffffffffff166370a08231336040518263ffffffff1660e01b8152600401610d7a919061179f565b60206040518083038186803b158015610d9257600080fd5b505afa158015610da6573d6000803e3d6000fd5b505050506040513d601f19601f82011682018060405250810190610dca91906116e5565b118015610e38575060001515600660003373ffffffffffffffffffffffffffffffffffffffff1673ffffffffffffffffffffffffffffffffffffffff168152602001908152602001600020600083815260200190815260200160002060009054906101000a900460ff161515145b8015610e5a575060056000828152602001908152602001600020600501544211155b15610f92576001600660003373ffffffffffffffffffffffffffffffffffffffff1673ffffffffffffffffffffffffffffffffffffffff168152602001908152602001600020600083815260200190815260200160002060006101000a81548160ff0219169083151502179055506001600560008381526020019081526020016000206003016000828254610eef9190611981565b92505081905550600360009054906101000a900473ffffffffffffffffffffffffffffffffffffffff1673ffffffffffffffffffffffffffffffffffffffff16639dc29fac33670de0b6b3a76400006040518363ffffffff1660e01b8152600401610f5b9291906117f1565b600060405180830381600087803b158015610f7557600080fd5b505af1158015610f89573d6000803e3d6000fd5b50505050610fc4565b6040517f9a34351a00000000000000000000000000000000000000000000000000000000815260040160405180910390fd5b50565b610fcf61133a565b80600460006101000a81548173ffffffffffffffffffffffffffffffffffffffff021916908373ffffffffffffffffffffffffffffffffffffffff16021790555050565b60066020528160005260406000206020528060005260406000206000915091509054906101000a900460ff1681565b6000678ac7230489e800009050662386f26fc100003414156112815780600360009054906101000a900473ffffffffffffffffffffffffffffffffffffffff1673ffffffffffffffffffffffffffffffffffffffff166370a08231600360009054906101000a900473ffffffffffffffffffffffffffffffffffffffff166040518263ffffffff1660e01b81526004016110dc919061179f565b60206040518083038186803b1580156110f457600080fd5b505afa158015611108573d6000803e3d6000fd5b505050506040513d601f19601f8201168201806040525081019061112c91906116e5565b11801561116c575061113c610ced565b73ffffffffffffffffffffffffffffffffffffffff163373ffffffffffffffffffffffffffffffffffffffff1614155b1561124a57600360009054906101000a900473ffffffffffffffffffffffffffffffffffffffff1673ffffffffffffffffffffffffffffffffffffffff166323b872dd600360009054906101000a900473ffffffffffffffffffffffffffffffffffffffff1633846040518463ffffffff1660e01b81526004016111f2939291906117ba565b602060405180830381600087803b15801561120c57600080fd5b505af1158015611220573d6000803e3d6000fd5b505050506040513d601f19601f820116820180604052508101906112449190611693565b5061127c565b6040517f38f580d900000000000000000000000000000000000000000000000000000000815260040160405180910390fd5b6112b3565b6040517fa3a1344e00000000000000000000000000000000000000000000000000000000815260040160405180910390fd5b50565b6112be61133a565b600073ffffffffffffffffffffffffffffffffffffffff168173ffffffffffffffffffffffffffffffffffffffff16141561132e576040517f08c379a0000000000000000000000000000000000000000000000000000000008152600401611325906118da565b60405180910390fd5b611337816113dc565b50565b6113426114a0565b73ffffffffffffffffffffffffffffffffffffffff16611360610ced565b73ffffffffffffffffffffffffffffffffffffffff16146113b6576040517f08c379a00000000000000000000000000000000000000000000000000000000081526004016113ad906118fa565b60405180910390fd5b565b6001816000016000828254019250508190555050565b600081600001549050919050565b60008060009054906101000a900473ffffffffffffffffffffffffffffffffffffffff169050816000806101000a81548173ffffffffffffffffffffffffffffffffffffffff021916908373ffffffffffffffffffffffffffffffffffffffff1602179055508173ffffffffffffffffffffffffffffffffffffffff168173ffffffffffffffffffffffffffffffffffffffff167f8be0079c531659141344cd1fd0a4f28419497f9722a3daafe3b4186f6b6457e060405160405180910390a35050565b600033905090565b60006114bb6114b68461193f565b61191a565b9050828152602081018484840111156114d357600080fd5b6114de848285611a5d565b509392505050565b6000813590506114f581611b84565b92915050565b60008151905061150a81611b9b565b92915050565b600082601f83011261152157600080fd5b81356115318482602086016114a8565b91505092915050565b60008135905061154981611bb2565b92915050565b60008151905061155e81611bb2565b92915050565b60006020828403121561157657600080fd5b6000611584848285016114e6565b91505092915050565b600080600080608085870312156115a357600080fd5b60006115b1878288016114e6565b94505060206115c2878288016114e6565b93505060406115d38782880161153a565b925050606085013567ffffffffffffffff8111156115f057600080fd5b6115fc87828801611510565b91505092959194509250565b6000806040838503121561161b57600080fd5b6000611629858286016114e6565b925050602061163a8582860161153a565b9150509250929050565b60008060006060848603121561165957600080fd5b6000611667868287016114e6565b93505060206116788682870161153a565b92505060406116898682870161153a565b9150509250925092565b6000602082840312156116a557600080fd5b60006116b3848285016114fb565b91505092915050565b6000602082840312156116ce57600080fd5b60006116dc8482850161153a565b91505092915050565b6000602082840312156116f757600080fd5b60006117058482850161154f565b91505092915050565b611717816119d7565b82525050565b611726816119e9565b82525050565b611735816119f5565b82525050565b61174481611a4b565b82525050565b6000611757602683611970565b915061176282611b0c565b604082019050919050565b600061177a602083611970565b915061178582611b5b565b602082019050919050565b61179981611a41565b82525050565b60006020820190506117b4600083018461170e565b92915050565b60006060820190506117cf600083018661170e565b6117dc602083018561170e565b6117e96040830184611790565b949350505050565b6000604082019050611806600083018561170e565b611813602083018461173b565b9392505050565b600060408201905061182f600083018561170e565b61183c6020830184611790565b9392505050565b600060c082019050611858600083018961170e565b6118656020830188611790565b6118726040830187611790565b61187f6060830186611790565b61188c6080830185611790565b61189960a0830184611790565b979650505050505050565b60006020820190506118b9600083018461171d565b92915050565b60006020820190506118d4600083018461172c565b92915050565b600060208201905081810360008301526118f38161174a565b9050919050565b600060208201905081810360008301526119138161176d565b9050919050565b6000611924611935565b90506119308282611a6c565b919050565b6000604051905090565b600067ffffffffffffffff82111561195a57611959611acc565b5b61196382611afb565b9050602081019050919050565b600082825260208201905092915050565b600061198c82611a41565b915061199783611a41565b9250827fffffffffffffffffffffffffffffffffffffffffffffffffffffffffffffffff038211156119cc576119cb611a9d565b5b828201905092915050565b60006119e282611a21565b9050919050565b60008115159050919050565b60007fffffffff0000000000000000000000000000000000000000000000000000000082169050919050565b600073ffffffffffffffffffffffffffffffffffffffff82169050919050565b6000819050919050565b6000611a5682611a41565b9050919050565b82818337600083830152505050565b611a7582611afb565b810181811067ffffffffffffffff82111715611a9457611a93611acc565b5b80604052505050565b7f4e487b7100000000000000000000000000000000000000000000000000000000600052601160045260246000fd5b7f4e487b7100000000000000000000000000000000000000000000000000000000600052604160045260246000fd5b6000601f19601f8301169050919050565b7f4f776e61626c653a206e6577206f776e657220697320746865207a65726f206160008201527f6464726573730000000000000000000000000000000000000000000000000000602082015250565b7f4f776e61626c653a2063616c6c6572206973206e6f7420746865206f776e6572600082015250565b611b8d816119d7565b8114611b9857600080fd5b50565b611ba4816119e9565b8114611baf57600080fd5b50565b611bbb81611a41565b8114611bc657600080fd5b5056fea26469706673582212203f3d350261be5336c239c2b7f1be8062eec6295f53f98ba98eb4dd19f31e6f7d64736f6c63430008040033",
  "linkReferences": {},
  "deployedLinkReferences": {}
}