{
  "_format": "hh-sol-artifact-1",
  "contractName": "DAOToken",
  "sourceName": "contracts/DAO/DAOToken.sol",
  "abi": [
    {
      "inputs": [
        {
          "internalType": "string",
          "name": "name",
          "type": "string"
        },
        {
          "internalType": "string",
          "name": "symbol",
          "type": "string"
        },
        {
          "internalType": "uint256",
          "name": "totalAmount",
          "type": "uint256"
        }
      ],
      "stateMutability": "nonpayable",
      "type": "constructor"
    },
    {
      "anonymous": false,
      "inputs": [
        {
          "indexed": true,
          "internalType": "address",
          "name": "owner",
          "type": "address"
        },
        {
          "indexed": true,
          "internalType": "address",
          "name": "spender",
          "type": "address"
        },
        {
          "indexed": false,
          "internalType": "uint256",
          "name": "value",
          "type": "uint256"
        }
      ],
      "name": "Approval",
      "type": "event"
    },
    {
      "anonymous": false,
      "inputs": [
        {
          "indexed": true,
          "internalType": "address",
          "name": "previousOwner",
          "type": "address"
        },
        {
          "indexed": true,
          "internalType": "address",
          "name": "newOwner",
          "type": "address"
        }
      ],
      "name": "OwnershipTransferred",
      "type": "event"
    },
    {
      "anonymous": false,
      "inputs": [
        {
          "indexed": true,
          "internalType": "address",
          "name": "from",
          "type": "address"
        },
        {
          "indexed": true,
          "internalType": "address",
          "name": "to",
          "type": "address"
        },
        {
          "indexed": false,
          "internalType": "uint256",
          "name": "value",
          "type": "uint256"
        }
      ],
      "name": "Transfer",
      "type": "event"
    },
    {
      "inputs": [
        {
          "internalType": "address",
          "name": "owner",
          "type": "address"
        },
        {
          "internalType": "address",
          "name": "spender",
          "type": "address"
        }
      ],
      "name": "allowance",
      "outputs": [
        {
          "internalType": "uint256",
          "name": "",
          "type": "uint256"
        }
      ],
      "stateMutability": "view",
      "type": "function"
    },
    {
      "inputs": [
        {
          "internalType": "address",
          "name": "spender",
          "type": "address"
        },
        {
          "internalType": "uint256",
          "name": "amount",
          "type": "uint256"
        }
      ],
      "name": "approve",
      "outputs": [
        {
          "internalType": "bool",
          "name": "",
          "type": "bool"
        }
      ],
      "stateMutability": "nonpayable",
      "type": "function"
    },
    {
      "inputs": [
        {
          "internalType": "address",
          "name": "account",
          "type": "address"
        }
      ],
      "name": "balanceOf",
      "outputs": [
        {
          "internalType": "uint256",
          "name": "",
          "type": "uint256"
        }
      ],
      "stateMutability": "view",
      "type": "function"
    },
    {
      "inputs": [
        {
          "internalType": "address",
          "name": "account",
          "type": "address"
        },
        {
          "internalType": "uint256",
          "name": "amount",
          "type": "uint256"
        }
      ],
      "name": "burn",
      "outputs": [],
      "stateMutability": "nonpayable",
      "type": "function"
    },
    {
      "inputs": [],
      "name": "decimals",
      "outputs": [
        {
          "internalType": "uint8",
          "name": "",
          "type": "uint8"
        }
      ],
      "stateMutability": "view",
      "type": "function"
    },
    {
      "inputs": [
        {
          "internalType": "address",
          "name": "spender",
          "type": "address"
        },
        {
          "internalType": "uint256",
          "name": "subtractedValue",
          "type": "uint256"
        }
      ],
      "name": "decreaseAllowance",
      "outputs": [
        {
          "internalType": "bool",
          "name": "",
          "type": "bool"
        }
      ],
      "stateMutability": "nonpayable",
      "type": "function"
    },
    {
      "inputs": [
        {
          "internalType": "address",
          "name": "spender",
          "type": "address"
        },
        {
          "internalType": "uint256",
          "name": "addedValue",
          "type": "uint256"
        }
      ],
      "name": "increaseAllowance",
      "outputs": [
        {
          "internalType": "bool",
          "name": "",
          "type": "bool"
        }
      ],
      "stateMutability": "nonpayable",
      "type": "function"
    },
    {
      "inputs": [],
      "name": "name",
      "outputs": [
        {
          "internalType": "string",
          "name": "",
          "type": "string"
        }
      ],
      "stateMutability": "view",
      "type": "function"
    },
    {
      "inputs": [],
      "name": "owner",
      "outputs": [
        {
          "internalType": "address",
          "name": "",
          "type": "address"
        }
      ],
      "stateMutability": "view",
      "type": "function"
    },
    {
      "inputs": [],
      "name": "renounceOwnership",
      "outputs": [],
      "stateMutability": "nonpayable",
      "type": "function"
    },
    {
      "inputs": [],
      "name": "symbol",
      "outputs": [
        {
          "internalType": "string",
          "name": "",
          "type": "string"
        }
      ],
      "stateMutability": "view",
      "type": "function"
    },
    {
      "inputs": [],
      "name": "totalSupply",
      "outputs": [
        {
          "internalType": "uint256",
          "name": "",
          "type": "uint256"
        }
      ],
      "stateMutability": "view",
      "type": "function"
    },
    {
      "inputs": [
        {
          "internalType": "address",
          "name": "to",
          "type": "address"
        },
        {
          "internalType": "uint256",
          "name": "amount",
          "type": "uint256"
        }
      ],
      "name": "transfer",
      "outputs": [
        {
          "internalType": "bool",
          "name": "",
          "type": "bool"
        }
      ],
      "stateMutability": "nonpayable",
      "type": "function"
    },
    {
      "inputs": [
        {
          "internalType": "address",
          "name": "from",
          "type": "address"
        },
        {
          "internalType": "address",
          "name": "to",
          "type": "address"
        },
        {
          "internalType": "uint256",
          "name": "amount",
          "type": "uint256"
        }
      ],
      "name": "transferFrom",
      "outputs": [
        {
          "internalType": "bool",
          "name": "",
          "type": "bool"
        }
      ],
      "stateMutability": "nonpayable",
      "type": "function"
    },
    {
      "inputs": [
        {
          "internalType": "address",
          "name": "newOwner",
          "type": "address"
        }
      ],
      "name": "transferOwnership",
      "outputs": [],
      "stateMutability": "nonpayable",
      "type": "function"
    }
  ],
  "bytecode": "0x60806040523480156200001157600080fd5b506040516200224c3803806200224c83398181016040528101906200003791906200047f565b828281600390805190602001906200005192919062000346565b5080600490805190602001906200006a92919062000346565b5050506200008d620000816200010060201b60201c565b6200010860201b60201c565b6200009f3082620001ce60201b60201c565b80600660003073ffffffffffffffffffffffffffffffffffffffff1673ffffffffffffffffffffffffffffffffffffffff1681526020019081526020016000206000828254620000f09190620005ee565b92505081905550505050620007d8565b600033905090565b6000600560009054906101000a900473ffffffffffffffffffffffffffffffffffffffff16905081600560006101000a81548173ffffffffffffffffffffffffffffffffffffffff021916908373ffffffffffffffffffffffffffffffffffffffff1602179055508173ffffffffffffffffffffffffffffffffffffffff168173ffffffffffffffffffffffffffffffffffffffff167f8be0079c531659141344cd1fd0a4f28419497f9722a3daafe3b4186f6b6457e060405160405180910390a35050565b600073ffffffffffffffffffffffffffffffffffffffff168273ffffffffffffffffffffffffffffffffffffffff16141562000241576040517f08c379a000000000000000000000000000000000000000000000000000000000815260040162000238906200053f565b60405180910390fd5b62000255600083836200033c60201b60201c565b8060026000828254620002699190620005ee565b92505081905550806000808473ffffffffffffffffffffffffffffffffffffffff1673ffffffffffffffffffffffffffffffffffffffff168152602001908152602001600020600082825401925050819055508173ffffffffffffffffffffffffffffffffffffffff16600073ffffffffffffffffffffffffffffffffffffffff167fddf252ad1be2c89b69c2b068fc378daa952ba7f163c4a11628f55a4df523b3ef836040516200031c919062000561565b60405180910390a362000338600083836200034160201b60201c565b5050565b505050565b505050565b82805462000354906200068b565b90600052602060002090601f016020900481019282620003785760008555620003c4565b82601f106200039357805160ff1916838001178555620003c4565b82800160010185558215620003c4579182015b82811115620003c3578251825591602001919060010190620003a6565b5b509050620003d39190620003d7565b5090565b5b80821115620003f2576000816000905550600101620003d8565b5090565b60006200040d6200040784620005a7565b6200057e565b9050828152602081018484840111156200042657600080fd5b6200043384828562000655565b509392505050565b600082601f8301126200044d57600080fd5b81516200045f848260208601620003f6565b91505092915050565b6000815190506200047981620007be565b92915050565b6000806000606084860312156200049557600080fd5b600084015167ffffffffffffffff811115620004b057600080fd5b620004be868287016200043b565b935050602084015167ffffffffffffffff811115620004dc57600080fd5b620004ea868287016200043b565b9250506040620004fd8682870162000468565b9150509250925092565b600062000516601f83620005dd565b9150620005238262000795565b602082019050919050565b62000539816200064b565b82525050565b600060208201905081810360008301526200055a8162000507565b9050919050565b60006020820190506200057860008301846200052e565b92915050565b60006200058a6200059d565b9050620005988282620006c1565b919050565b6000604051905090565b600067ffffffffffffffff821115620005c557620005c462000755565b5b620005d08262000784565b9050602081019050919050565b600082825260208201905092915050565b6000620005fb826200064b565b915062000608836200064b565b9250827fffffffffffffffffffffffffffffffffffffffffffffffffffffffffffffffff0382111562000640576200063f620006f7565b5b828201905092915050565b6000819050919050565b60005b838110156200067557808201518184015260208101905062000658565b8381111562000685576000848401525b50505050565b60006002820490506001821680620006a457607f821691505b60208210811415620006bb57620006ba62000726565b5b50919050565b620006cc8262000784565b810181811067ffffffffffffffff82111715620006ee57620006ed62000755565b5b80604052505050565b7f4e487b7100000000000000000000000000000000000000000000000000000000600052601160045260246000fd5b7f4e487b7100000000000000000000000000000000000000000000000000000000600052602260045260246000fd5b7f4e487b7100000000000000000000000000000000000000000000000000000000600052604160045260246000fd5b6000601f19601f8301169050919050565b7f45524332303a206d696e7420746f20746865207a65726f206164647265737300600082015250565b620007c9816200064b565b8114620007d557600080fd5b50565b611a6480620007e86000396000f3fe608060405234801561001057600080fd5b50600436106100f55760003560e01c8063715018a611610097578063a457c2d711610066578063a457c2d714610276578063a9059cbb146102a6578063dd62ed3e146102d6578063f2fde38b14610306576100f5565b8063715018a6146102145780638da5cb5b1461021e57806395d89b411461023c5780639dc29fac1461025a576100f5565b806323b872dd116100d357806323b872dd14610166578063313ce5671461019657806339509351146101b457806370a08231146101e4576100f5565b806306fdde03146100fa578063095ea7b31461011857806318160ddd14610148575b600080fd5b610102610322565b60405161010f9190611360565b60405180910390f35b610132600480360381019061012d91906110f8565b6103b4565b60405161013f9190611345565b60405180910390f35b6101506103d7565b60405161015d91906114e2565b60405180910390f35b610180600480360381019061017b91906110a9565b6103e1565b60405161018d9190611345565b60405180910390f35b61019e610410565b6040516101ab91906114fd565b60405180910390f35b6101ce60048036038101906101c991906110f8565b610419565b6040516101db9190611345565b60405180910390f35b6101fe60048036038101906101f99190611044565b610449565b60405161020b91906114e2565b60405180910390f35b61021c610492565b005b6102266104a6565b604051610233919061132a565b60405180910390f35b6102446104d0565b6040516102519190611360565b60405180910390f35b610274600480360381019061026f91906110f8565b610562565b005b610290600480360381019061028b91906110f8565b6105c6565b60405161029d9190611345565b60405180910390f35b6102c060048036038101906102bb91906110f8565b61063d565b6040516102cd9190611345565b60405180910390f35b6102f060048036038101906102eb919061106d565b610660565b6040516102fd91906114e2565b60405180910390f35b610320600480360381019061031b9190611044565b6106e7565b005b60606003805461033190611646565b80601f016020809104026020016040519081016040528092919081815260200182805461035d90611646565b80156103aa5780601f1061037f576101008083540402835291602001916103aa565b820191906000526020600020905b81548152906001019060200180831161038d57829003601f168201915b5050505050905090565b6000806103bf61076b565b90506103cc818585610773565b600191505092915050565b6000600254905090565b6000806103ec61076b565b90506103f985828561093e565b6104048585856109ca565b60019150509392505050565b60006012905090565b60008030905061043e81858561042f8589610660565b6104399190611534565b610773565b600191505092915050565b6000600660008373ffffffffffffffffffffffffffffffffffffffff1673ffffffffffffffffffffffffffffffffffffffff168152602001908152602001600020549050919050565b61049a610a86565b6104a46000610b04565b565b6000600560009054906101000a900473ffffffffffffffffffffffffffffffffffffffff16905090565b6060600480546104df90611646565b80601f016020809104026020016040519081016040528092919081815260200182805461050b90611646565b80156105585780601f1061052d57610100808354040283529160200191610558565b820191906000526020600020905b81548152906001019060200180831161053b57829003601f168201915b5050505050905090565b80600660008473ffffffffffffffffffffffffffffffffffffffff1673ffffffffffffffffffffffffffffffffffffffff16815260200190815260200160002060008282546105b1919061158a565b925050819055506105c28282610bca565b5050565b6000806105d161076b565b905060006105df8286610660565b905083811015610624576040517f08c379a000000000000000000000000000000000000000000000000000000000815260040161061b906114c2565b60405180910390fd5b6106318286868403610773565b60019250505092915050565b60008061064861076b565b90506106558185856109ca565b600191505092915050565b6000600160008473ffffffffffffffffffffffffffffffffffffffff1673ffffffffffffffffffffffffffffffffffffffff16815260200190815260200160002060008373ffffffffffffffffffffffffffffffffffffffff1673ffffffffffffffffffffffffffffffffffffffff16815260200190815260200160002054905092915050565b6106ef610a86565b600073ffffffffffffffffffffffffffffffffffffffff168173ffffffffffffffffffffffffffffffffffffffff16141561075f576040517f08c379a0000000000000000000000000000000000000000000000000000000008152600401610756906113c2565b60405180910390fd5b61076881610b04565b50565b600033905090565b600073ffffffffffffffffffffffffffffffffffffffff168373ffffffffffffffffffffffffffffffffffffffff1614156107e3576040517f08c379a00000000000000000000000000000000000000000000000000000000081526004016107da906114a2565b60405180910390fd5b600073ffffffffffffffffffffffffffffffffffffffff168273ffffffffffffffffffffffffffffffffffffffff161415610853576040517f08c379a000000000000000000000000000000000000000000000000000000000815260040161084a906113e2565b60405180910390fd5b80600160008573ffffffffffffffffffffffffffffffffffffffff1673ffffffffffffffffffffffffffffffffffffffff16815260200190815260200160002060008473ffffffffffffffffffffffffffffffffffffffff1673ffffffffffffffffffffffffffffffffffffffff168152602001908152602001600020819055508173ffffffffffffffffffffffffffffffffffffffff168373ffffffffffffffffffffffffffffffffffffffff167f8c5be1e5ebec7d5bd14f71427d1e84f3dd0314c0f7b2291e5b200ac8c7c3b9258360405161093191906114e2565b60405180910390a3505050565b600061094a8484610660565b90507fffffffffffffffffffffffffffffffffffffffffffffffffffffffffffffffff81146109c457818110156109b6576040517f08c379a00000000000000000000000000000000000000000000000000000000081526004016109ad90611402565b60405180910390fd5b6109c38484848403610773565b5b50505050565b80600660008573ffffffffffffffffffffffffffffffffffffffff1673ffffffffffffffffffffffffffffffffffffffff1681526020019081526020016000206000828254610a19919061158a565b9250508190555080600660008473ffffffffffffffffffffffffffffffffffffffff1673ffffffffffffffffffffffffffffffffffffffff1681526020019081526020016000206000828254610a6f9190611534565b92505081905550610a81838383610d98565b505050565b610a8e61076b565b73ffffffffffffffffffffffffffffffffffffffff16610aac6104a6565b73ffffffffffffffffffffffffffffffffffffffff1614610b02576040517f08c379a0000000000000000000000000000000000000000000000000000000008152600401610af990611442565b60405180910390fd5b565b6000600560009054906101000a900473ffffffffffffffffffffffffffffffffffffffff16905081600560006101000a81548173ffffffffffffffffffffffffffffffffffffffff021916908373ffffffffffffffffffffffffffffffffffffffff1602179055508173ffffffffffffffffffffffffffffffffffffffff168173ffffffffffffffffffffffffffffffffffffffff167f8be0079c531659141344cd1fd0a4f28419497f9722a3daafe3b4186f6b6457e060405160405180910390a35050565b600073ffffffffffffffffffffffffffffffffffffffff168273ffffffffffffffffffffffffffffffffffffffff161415610c3a576040517f08c379a0000000000000000000000000000000000000000000000000000000008152600401610c3190611462565b60405180910390fd5b610c4682600083611010565b60008060008473ffffffffffffffffffffffffffffffffffffffff1673ffffffffffffffffffffffffffffffffffffffff16815260200190815260200160002054905081811015610ccc576040517f08c379a0000000000000000000000000000000000000000000000000000000008152600401610cc3906113a2565b60405180910390fd5b8181036000808573ffffffffffffffffffffffffffffffffffffffff1673ffffffffffffffffffffffffffffffffffffffff1681526020019081526020016000208190555081600260008282540392505081905550600073ffffffffffffffffffffffffffffffffffffffff168373ffffffffffffffffffffffffffffffffffffffff167fddf252ad1be2c89b69c2b068fc378daa952ba7f163c4a11628f55a4df523b3ef84604051610d7f91906114e2565b60405180910390a3610d9383600084611015565b505050565b600073ffffffffffffffffffffffffffffffffffffffff168373ffffffffffffffffffffffffffffffffffffffff161415610e08576040517f08c379a0000000000000000000000000000000000000000000000000000000008152600401610dff90611482565b60405180910390fd5b600073ffffffffffffffffffffffffffffffffffffffff168273ffffffffffffffffffffffffffffffffffffffff161415610e78576040517f08c379a0000000000000000000000000000000000000000000000000000000008152600401610e6f90611382565b60405180910390fd5b610e83838383611010565b60008060008573ffffffffffffffffffffffffffffffffffffffff1673ffffffffffffffffffffffffffffffffffffffff16815260200190815260200160002054905081811015610f09576040517f08c379a0000000000000000000000000000000000000000000000000000000008152600401610f0090611422565b60405180910390fd5b8181036000808673ffffffffffffffffffffffffffffffffffffffff1673ffffffffffffffffffffffffffffffffffffffff16815260200190815260200160002081905550816000808573ffffffffffffffffffffffffffffffffffffffff1673ffffffffffffffffffffffffffffffffffffffff168152602001908152602001600020600082825401925050819055508273ffffffffffffffffffffffffffffffffffffffff168473ffffffffffffffffffffffffffffffffffffffff167fddf252ad1be2c89b69c2b068fc378daa952ba7f163c4a11628f55a4df523b3ef84604051610ff791906114e2565b60405180910390a361100a848484611015565b50505050565b505050565b505050565b60008135905061102981611a00565b92915050565b60008135905061103e81611a17565b92915050565b60006020828403121561105657600080fd5b60006110648482850161101a565b91505092915050565b6000806040838503121561108057600080fd5b600061108e8582860161101a565b925050602061109f8582860161101a565b9150509250929050565b6000806000606084860312156110be57600080fd5b60006110cc8682870161101a565b93505060206110dd8682870161101a565b92505060406110ee8682870161102f565b9150509250925092565b6000806040838503121561110b57600080fd5b60006111198582860161101a565b925050602061112a8582860161102f565b9150509250929050565b61113d816115be565b82525050565b61114c816115d0565b82525050565b600061115d82611518565b6111678185611523565b9350611177818560208601611613565b611180816116d6565b840191505092915050565b6000611198602383611523565b91506111a3826116e7565b604082019050919050565b60006111bb602283611523565b91506111c682611736565b604082019050919050565b60006111de602683611523565b91506111e982611785565b604082019050919050565b6000611201602283611523565b915061120c826117d4565b604082019050919050565b6000611224601d83611523565b915061122f82611823565b602082019050919050565b6000611247602683611523565b91506112528261184c565b604082019050919050565b600061126a602083611523565b91506112758261189b565b602082019050919050565b600061128d602183611523565b9150611298826118c4565b604082019050919050565b60006112b0602583611523565b91506112bb82611913565b604082019050919050565b60006112d3602483611523565b91506112de82611962565b604082019050919050565b60006112f6602583611523565b9150611301826119b1565b604082019050919050565b611315816115fc565b82525050565b61132481611606565b82525050565b600060208201905061133f6000830184611134565b92915050565b600060208201905061135a6000830184611143565b92915050565b6000602082019050818103600083015261137a8184611152565b905092915050565b6000602082019050818103600083015261139b8161118b565b9050919050565b600060208201905081810360008301526113bb816111ae565b9050919050565b600060208201905081810360008301526113db816111d1565b9050919050565b600060208201905081810360008301526113fb816111f4565b9050919050565b6000602082019050818103600083015261141b81611217565b9050919050565b6000602082019050818103600083015261143b8161123a565b9050919050565b6000602082019050818103600083015261145b8161125d565b9050919050565b6000602082019050818103600083015261147b81611280565b9050919050565b6000602082019050818103600083015261149b816112a3565b9050919050565b600060208201905081810360008301526114bb816112c6565b9050919050565b600060208201905081810360008301526114db816112e9565b9050919050565b60006020820190506114f7600083018461130c565b92915050565b6000602082019050611512600083018461131b565b92915050565b600081519050919050565b600082825260208201905092915050565b600061153f826115fc565b915061154a836115fc565b9250827fffffffffffffffffffffffffffffffffffffffffffffffffffffffffffffffff0382111561157f5761157e611678565b5b828201905092915050565b6000611595826115fc565b91506115a0836115fc565b9250828210156115b3576115b2611678565b5b828203905092915050565b60006115c9826115dc565b9050919050565b60008115159050919050565b600073ffffffffffffffffffffffffffffffffffffffff82169050919050565b6000819050919050565b600060ff82169050919050565b60005b83811015611631578082015181840152602081019050611616565b83811115611640576000848401525b50505050565b6000600282049050600182168061165e57607f821691505b60208210811415611672576116716116a7565b5b50919050565b7f4e487b7100000000000000000000000000000000000000000000000000000000600052601160045260246000fd5b7f4e487b7100000000000000000000000000000000000000000000000000000000600052602260045260246000fd5b6000601f19601f8301169050919050565b7f45524332303a207472616e7366657220746f20746865207a65726f206164647260008201527f6573730000000000000000000000000000000000000000000000000000000000602082015250565b7f45524332303a206275726e20616d6f756e7420657863656564732062616c616e60008201527f6365000000000000000000000000000000000000000000000000000000000000602082015250565b7f4f776e61626c653a206e6577206f776e657220697320746865207a65726f206160008201527f6464726573730000000000000000000000000000000000000000000000000000602082015250565b7f45524332303a20617070726f766520746f20746865207a65726f20616464726560008201527f7373000000000000000000000000000000000000000000000000000000000000602082015250565b7f45524332303a20696e73756666696369656e7420616c6c6f77616e6365000000600082015250565b7f45524332303a207472616e7366657220616d6f756e742065786365656473206260008201527f616c616e63650000000000000000000000000000000000000000000000000000602082015250565b7f4f776e61626c653a2063616c6c6572206973206e6f7420746865206f776e6572600082015250565b7f45524332303a206275726e2066726f6d20746865207a65726f2061646472657360008201527f7300000000000000000000000000000000000000000000000000000000000000602082015250565b7f45524332303a207472616e736665722066726f6d20746865207a65726f20616460008201527f6472657373000000000000000000000000000000000000000000000000000000602082015250565b7f45524332303a20617070726f76652066726f6d20746865207a65726f2061646460008201527f7265737300000000000000000000000000000000000000000000000000000000602082015250565b7f45524332303a2064656372656173656420616c6c6f77616e63652062656c6f7760008201527f207a65726f000000000000000000000000000000000000000000000000000000602082015250565b611a09816115be565b8114611a1457600080fd5b50565b611a20816115fc565b8114611a2b57600080fd5b5056fea2646970667358221220c55863b58975c48249ea8e6995b93ce6d042e35e332a942e38ec48c6e092a95164736f6c63430008040033",
  "linkReferences": {},
  "deployedLinkReferences": {}
}